:020000040800F2
:1000000098080020F11000085D0300085F03000855
:1000100063030008670300086B030008000000008A
:100020000000000000000000000000006F03000856
:100030007103000800000000730300087503000846
:100040000B1100080B1100080B1100080B11000820
:100050000B1100080B1100080B1100080B11000810
:100060000B1100080B1100080B1100080B11000800
:100070000B1100080B1100080B1100080B110008F0
:100080000B1100080B1100080B1100080B110008E0
:10009000790300080B1100080B1100080B11000870
:1000A0000B1100080B1100080B1100080B110008C0
:1000B0000B1100080B1100080B1100080B110008B0
:1000C0000B1100080B1100080B1100080B110008A0
:1000D0000B110008671000080B1100080B11000835
:1000E0000B1100080B1100088103000800F002F852
:1000F00000F05FF80AA090E8000C82448344AAF163
:100100000107DA4501D100F054F8AFF2090EBAE860
:100110000F0013F0010F18BFFB1A43F0010318473B
:10012000F0470000104800000A444FF0000C10F89F
:10013000013B13F0070408BF10F8014B1D1108BF65
:1001400010F8015B641E05D010F8016B641E01F805
:10015000016BF9D113F0080F1EBF10F8014BAD1C55
:100160000C1B09D16D1E58BF01F801CBFAD505E073
:1001700014F8016B01F8016B6D1EF9D59142D6D3CD
:10018000704700000023002400250026103A28BFF5
:1001900078C1FBD8520728BF30C148BF0B607047F9
:1001A000642903F04586002070471FB51FBD10B5B8
:1001B00010BD03F08BFF1146FFF7F7FF00F034F896
:1001C00003F0A9FF03B4FFF7F2FF03BC00F0F0FE59
:1001D00002468A4201D9501A7047881AFCE710B5C6
:1001E00004460121042001F02DFB3CB14648006883
:1001F00080B220F002004449086014E042480068E0
:1002000080B240F00200404908604048006820F495
:100210007F203E4908600846006840F44C30086082
:1002200000203B49086010BD1FB500BF00F050FE24
:1002300000F0B8FE4FF4165000F0C9FE00F096F939
:1002400000F0BAF900F01CFA282000F07EFE00F061
:1002500076FB282000F079FE00F098FC2DA003F03A
:10026000B3FD31A003F0B0FD00F0F3FD32A003F0C8
:10027000ABFD48E002A800F0A6FBBDF90800404332
:1002800040F2DC51884206DDBDF908000F2190FBE9
:10029000F1F006B200E00026BDF90C00404340F248
:1002A000DC51884207DDBDF90C0040420F2190FB74
:1002B000F1F005B200E00025012000F08DF90446C0
:1002C000012C01D1012708E0022C01D1022704E012
:1002D000032C01D1042700E000278DF80070280AC4
:1002E0008DF80100E8B28DF80200300A8DF80300A5
:1002F000F0B28DF80400684600F039FD3246294618
:1003000013A003F061FDB5E7405C00400408014024
:10031000B001214232346C3031B3F5CABCBBAFCD31
:10032000EAB1CF0D0A000000BCECB2E2B5BD323438
:100330006C30310D0A000000C9E8D6C332346C308D
:1003400031CEAAB7A2C9E4C4A3CABD0D0A000000F9
:100350002020253864202538640D0A00704700BF2E
:10036000FEE700BFFEE700BFFEE700BFFEE7704705
:10037000704770477047704710B503F0EFFA10BD33
:1003800010B54FF4802001F04AFD10BD0CB50020DF
:10039000019000906C48006840F480306A49086021
:1003A00000BF6948006800F4003000900198401CCC
:1003B0000190009818B90198B0F5A06FF1D162488A
:1003C000006800F4003010B10120009001E000202E
:1003D00000900098012843D15C48006840F010006C
:1003E0005A4908600846006820F003000860084683
:1003F000006840F002000860534840685249486075
:100400000846406848600846406840F4806048609C
:100410000846406820F47C1048600846406840F474
:10042000E81048600846006840F08070086000BF2F
:100430004548006800F000700028F9D04248406844
:1004400020F00300404948600846406840F0020040
:10045000486000BF3C48406800F00C000828F9D113
:100460000CBD10B5FFF792FF10BD10B536480068FF
:1004700040F00100344908600846406834490840AB
:100480003149486008460068324908402E490860F2
:100490000846006820F4802008600846406820F480
:1004A000FE0048604FF41F008860FFF7DAFF4FF04E
:1004B00000602949086010BD10B50021002000220D
:1004C000214B5B6803F00C0121B1042906D00829F7
:1004D00028D107E0214B224C236027E01F4B204C02
:1004E000236023E0184B5B6803F47010164B5B68C5
:1004F00003F48032022303EB904022B9194B4343AB
:10050000174C23600DE0104B5B6803F4003323B1FC
:10051000144B4343124C236003E0104B4343104CF5
:10052000236003E00D4B0E4C236000BF00BF064B61
:100530005B68C3F303130C4CE15C094B1B68CB40B5
:10054000074C236010BD0000001002400020024054
:100550000000FFF8FFFFF6FE08ED00E000127A0051
:100560000000002000093D000400002008B5012122
:10057000482001F067F92020ADF8000010208DF828
:10058000030003208DF802006946094800F09EFE32
:100590002021074800F047FF2020ADF80000694601
:1005A000044800F093FE2021024800F03CFF08BD03
:1005B000000C01400018014008B50121042001F0A1
:1005C00041F93020ADF8000048208DF8030069465D
:1005D000294800F07BFE08BD10B5044614B1012087
:1005E0002649087025480078A0B31021224800F061
:1005F00000FF20B12021204800F0FBFE50BB0A2064
:1006000000F0A3FC00201D49087010211A4800F0DA
:10061000F0FE30B92021184800F0EBFE012800D18F
:1006200010BD1021144800F0E4FE012806D120215D
:10063000114800F0DEFE08B90220F1E710210E4853
:1006400000F0D7FEA8B920210B4800F0D2FE80B9F7
:100650000320E5E7FFE71021074800F0CAFE012864
:1006600007D12021044800F0C4FE012801D103492C
:1006700008700020D4E700000008014014000020AA
:1006800008B5C020ADF8000003208DF8020010204E
:100690008DF803006946874800F018FE4021854820
:1006A00000F0C1FE8021834800F0BDFE08BD08B502
:1006B0008020ADF8000003208DF8020010208DF896
:1006C000030069467B4800F001FE08BD08B58020A4
:1006D000ADF8000048208DF803006946754800F029
:1006E000F5FD08BD10B5FFF7E2FF8021714800F06D
:1006F0009AFE40216F4800F096FE052000F001FCB4
:1007000080216C4800F091FE062000F0FAFB4021A9
:10071000684800F08AFE10BD10B5FFF7C8FF402101
:10072000644800F082FE8021624800F07EFE402195
:10073000604800F078FE062000F0E3FB80215D4871
:1007400000F071FE062000F0DCFB10BD10B540216A
:10075000584800F06AFEFFF7AAFF8021554800F0D4
:1007600064FE022000F0CDFB4021524800F05BFE09
:10077000052000F0C6FB40214E4800F056FE10BD9B
:1007800010B540214B4800F050FEFFF790FF80214C
:10079000484800F048FE022000F0B3FB40214548E5
:1007A00000F041FE052000F0ACFB4021414800F084
:1007B0003CFE10BD10B50024FFF788FF80213D48A6
:1007C00000F031FE012000F09CFB4021394800F090
:1007D0002AFE012000F095FB07E0601CC4B2FA2C51
:1007E00003DDFFF799FF012010BD8021314800F0A3
:1007F00000FE0028F1D140212E4800F016FE002016
:10080000F2E770B504460025FFF751FF4021294863
:1008100000F00BFE00BF1EE004F08000002804DDA5
:100820008021244800F0FFFD03E08021214800F0F2
:10083000FCFD6006040E40211E4800F0F4FD02207D
:1008400000F05FFB40211B4800F0EFFD022000F0AC
:1008500058FB681CC5B2082DDEDB70BD70B50546BF
:1008600000260024FFF732FF00BF18E040211148A6
:1008700000F0DBFD022000F044FB40210D4800F0B9
:10088000D2FD6006040E80210A4800F0B2FD08B1D6
:10089000601CC4B2012000F034FB701CC6B2082EEC
:1008A000E4DB15B9FFF76CFF01E0FFF74FFF2046CF
:1008B00070BD0000000C014070B505460C46FFF706
:1008C00011FFD020FFF79DFFFFF774FF2846FFF7C9
:1008D00098FFFFF76FFF2046FFF793FFFFF76AFFD0
:1008E000FFF71AFF70BD2DE9F04107460C4615468B
:1008F000FFF7F8FED020FFF784FFFFF75BFF3846D5
:10090000FFF77FFFFFF756FFFFF7ECFED120FFF761
:1009100078FFFFF74FFF002606E00120FFF79EFF5C
:100920002070641C701CC6B2681EB042F5DC00204A
:10093000FFF794FF2070FFF7EFFEBDE8F08110B5E0
:1009400000216B20FFF7B8FF07211920FFF7B4FF44
:1009500006211A20FFF7B0FF01211C20FFF7ACFF92
:1009600018211B20FFF7A8FF10BD08B5002000903C
:10097000012269467520FFF7B6FF9DF800103DA0E3
:1009800003F022FA08BD1CB50446062269463B2046
:10099000FFF7A9FF9DF801009DF8001040EA012033
:1009A00000B220809DF803009DF8021040EA01206B
:1009B00000B260809DF805009DF8041040EA012017
:1009C00000B2A0801CBD1CB5044606226946432027
:1009D000FFF789FF9DF801009DF8001040EA012013
:1009E00000B220809DF803009DF8021040EA01202B
:1009F00000B260809DF805009DF8041040EA0120D7
:100A000000B2A0801CBD38B50446022269464120D0
:100A1000FFF769FF9DF801009DF8001040EA0120F2
:100A200000B2208038BD2DE9F84F82460222694687
:100A30004120FFF758FF9DF801009DF8001040EAA3
:100A400001200FFA80FB43F29030584403F0A7FDD9
:100A500080460022094B03F01BFC06460022084B8F
:100A600003F008FE044603F06BFD00B2AAF8000094
:100A7000BDE8F88F25640D0A000000000080714079
:100A800000002A4070B50546002405E0601CC4B291
:100A9000C82C01DD002070BD02213A4801F017FB8F
:100AA0000028F3D02946374801F0BEFA002405E0BB
:100AB000601CC4B2C82C01DD0020ECE701213148E4
:100AC00001F005FB0028F3D02E4801F0AFFAC0B2C8
:100AD000E1E700B587B00121082000F0B3FE012155
:100AE000880300F0BCFE4FF46040ADF818001820F9
:100AF0008DF81B0003208DF81A0006A9224800F08B
:100B0000E5FB4FF46041204800F08DFC0020ADF87B
:100B100004004FF48270ADF806000020ADF8080024
:100B20000220ADF80A000120ADF80C004002ADF83B
:100B30000E001820ADF810000020ADF812000720BC
:100B4000ADF8140001A90F4801F098F901210D48F2
:100B500001F039FAFF20FFF795FF07B000BD10B58F
:100B60000446084800884FF6C771084005490880C8
:100B700008460088204308800121024801F023FA3A
:100B800010BD000000380040000C014000B587B0E7
:100B900001212C2000F056FE4FF48050ADF81800D3
:100BA00010208DF81B0003208DF81A0006A9BE48FE
:100BB00000F08CFB4FF48051BB4800F034FC042063
:100BC000ADF8180010208DF81B000421B74800F084
:100BD0002AFC0620ADF8180006A9B54800F076FBFF
:100BE0000820ADF8180028208DF81B0006A9B04891
:100BF00000F06CFB0E21AE4800F017FCFFF769FF18
:100C00000021AC4801F0DFF90020ADF804004FF4FA
:100C10008270ADF806000020ADF80800ADF80A00BB
:100C2000ADF80C004FF40070ADF80E001820ADF8D0
:100C300010000020ADF812000720ADF8140001A943
:100C40009C4801F01BF901219A4801F0BCF90020F1
:100C50009949086001209949C1F8880107B000BD91
:100C60002DE9F04107460D46164600209249091D20
:100C700008603846FFF706FF8046002405E0FF20A5
:100C8000FFF700FF2855601CC4B2B442F7DB012017
:100C90008949091D08604046BDE8F0812DE9F04111
:100CA00007460C46154600208349091D0860384652
:100CB000FFF7E8FE8046002605E014F8010BFFF779
:100CC000E1FE701CC6B2AE42F7DB01207A49091D75
:100CD00008604046BDE8F0811CB579A103C9CDE9A3
:100CE00000010820FFF73BFF052269463020FFF78F
:100CF000D5FF052269461020FFF7B2FF002406E069
:100D00001DF80400A52800D003E0601CC4B2052C27
:100D1000F6DB00BF052C01D001201CBD0020FCE744
:100D200070B505460C4600206349091D0860284639
:100D3000FFF7A8FE06462046FFF7A4FE01205F4904
:100D4000C1F88801304670BD70B5044600205A498C
:100D5000091D08602046FFF795FEFF20FFF792FE71
:100D6000054601205549C1F88801284670BD70B577
:100D700005461020FFF7F3FE00204F4908602022AF
:100D80002946A020FFF78AFF01204C49C1F88401C1
:100D900000BF4948783800680028FAD10720FFF7DB
:100DA000D3FF044621462720FFF7BAFF04F01000C6
:100DB00028B1FF21E120FFF7B3FF102070BD04F040
:100DC000200008B12020F9E7FF20F7E770B50446BE
:100DD0001020FFF7C4FE0720FFF7B6FF054629469F
:100DE0002720FFF79DFF05F0400050B1202221464B
:100DF0006120FFF735FFFF21E220FFF791FF002080
:100E000070BD0120FCE710B500202B4908600522C9
:100E10002D492A20FFF742FF01212120FFF780FF03
:100E200001212220FFF77CFF28212520FFF778FFF2
:100E300020213120FFF774FF0F212620FFF770FFDC
:100E40000F212020FFF76CFF01201C49C1F884010D
:100E500010BD10B500201849086005221B4930203C
:100E6000FFF71CFF052218492A20FFF717FF012171
:100E70002120FFF755FF01212220FFF751FF1A2102
:100E80002420FFF74DFF28212520FFF749FF0F21E0
:100E90002620FFF745FF0E212020FFF741FF01200C
:100EA0000649C1F8840110BD000C01400014014046
:100EB0000008014000380040840121420000214226
:100EC000A5A5A5A5A50000004D48000848480008B4
:100ED00010B56FF0040000F07AF92E4800682E4932
:100EE000B0FBF1F02D4908700846007800EB400196
:100EF000C1EBC0104FF6FF7101EAC000284908801D
:100F000010BD0146254A12784A434FF0E0235A614A
:100F100000229A611A46126942F001021A6100BF6A
:100F20004FF0E022106900F001021AB100F48032A3
:100F3000002AF5D04FF0E022126922F001024FF0B2
:100F4000E0231A6100229A6170470146144A128810
:100F50004A434FF0E0235A6100229A611A4612690F
:100F600042F001021A6100BF4FF0E022106900F068
:100F700001021AB100F48032002AF5D04FF0E022CD
:100F8000126922F001024FF0E0231A6100229A61F7
:100F9000704700000000002000127A0016000020B8
:100FA0001800002010B54FF4A06000F0C1F810BD8B
:100FB000014600BF704700BF494A128802F0400254
:100FC000002AF9D0C2B2464B1B1D1A80704710B5DB
:100FD00086B00446012144F2040000F033FC4FF4D3
:100FE0000070ADF8140003208DF8160018208DF85D
:100FF000170005A93B4800F069F94FF48060ADF88F
:10100000140004208DF8170005A9364800F05EF999
:1010100025208DF8000003208DF801008DF80200D6
:1010200001208DF80300684600F087F80194002045
:10103000ADF80800ADF80A00ADF80C00ADF81000EE
:101040000C20ADF80E0001A9254800F0A2FC0122F9
:1010500040F22551224800F034FD0121204800F0E3
:1010600024FD06B010BD10B540F225511C4800F01B
:101070000DFE10B31A4800F089FDC4B21A4800886A
:1010800000F40040C8B91848008800F4804060B1FE
:101090000A2C03D000201449088020E01248008860
:1010A00040F400401049088019E00D2C06D10E488C
:1010B000008840F480400C49088010E00A4800880D
:1010C000C0F30D0009490C5407480088401C06492C
:1010D000088008460088C72801DD0020088010BD70
:1010E000003801400008014020000020500100208D
:1010F0000948804709480047FEE7FEE7FEE7FEE7AC
:10110000FEE7FEE7FEE7FEE7FEE7FEE704480549E7
:10111000054A064B704700006B040008ED0000080C
:1011200098020020980800209804002098040020CD
:1011300031490143314A1160704770B500210023E5
:101140000F22C47804B32D4C246804F4E064C4F581
:10115000E064210AC1F10403CA40447804FA03F1AF
:101160008478144021430901254C0678A155047860
:1011700004F01F050124AC4005786D11AD0005F1A8
:10118000E025C5F8004109E0047804F01F050124BA
:10119000AC401C4D0678761145F8264070BD1A4AC1
:1011A0000A400243154B1B1F1A60704739B1134A9E
:1011B000121D12680243114B1B1D1A6006E00F4AF4
:1011C000121D126882430D4B1B1D1A6070470428C4
:1011D00008D14FF0E021096941F004014FF0E0220D
:1011E000116107E04FF0E021096921F004014FF09F
:1011F000E0221161704700000000FA050CED00E0EC
:1012000000E400E080E100E080FFFF1F10B504462D
:10121000CC48844208D10121042000F02DFB00219C
:10122000042000F029FB46E0C748844208D1012190
:10123000082000F021FB0021082000F01DFB3AE00F
:10124000C248844208D10121102000F015FB002182
:10125000102000F011FB2EE0BD48844208D101218E
:10126000202000F009FB0021202000F005FB22E0F7
:10127000B848844208D10121402000F0FDFA002145
:10128000402000F0F9FA16E0B348844208D1012169
:10129000802000F0F1FA0021802000F0EDFA0AE051
:1012A000AE48844207D10121801500F0E5FA002103
:1012B000A01500F0E1FA10BD10B50121084600F0BC
:1012C000DBFA0021012000F0D7FA10BD2DE9F04132
:1012D000024600250026002000230024002791F864
:1012E00003C00CF00F0591F803C00CF0100CBCF11A
:1012F000000F03D091F802C04CEA050591F800C038
:10130000BCF1000F31D0146800202BE04FF0010C2D
:101310000CFA00F3B1F800C00CEA03069E4220D19B
:1013200083004FF00F0C0CFA03F7BC4305FA03FCE3
:101330004CEA040491F803C0BCF1280F06D14FF029
:10134000010C0CFA00FCC2F814C00AE091F803C0CA
:10135000BCF1480F05D14FF0010C0CFA00FCC2F8AB
:1013600010C0401C0828D1D31460B1F800C0BCF1F3
:10137000FF0F34DD546800202EE000F1080C4FF020
:10138000010808FA0CF3B1F800C00CEA03069E420B
:1013900021D183004FF00F0C0CFA03F7BC4305FA80
:1013A00003FC4CEA040491F803C0BCF1280F05D1FA
:1013B00000F1080C08FA0CF8C2F8148091F803C088
:1013C000BCF1480F07D100F1080C4FF0010808FAF2
:1013D0000CF8C2F81080401C0828CED35460BDE839
:1013E000F0814FF6FF710180022181700421C170EC
:1013F00070470246002093680B400BB1012000E0CB
:10140000002070470146886880B27047024600207D
:10141000D3680B400BB1012000E00020704701466B
:10142000C86880B2704701617047416170470AB176
:10143000016100E041617047C16070474FF4803244
:101440000A438261816182618269826970470246D2
:101450000020434B18684FF68073184040EA021092
:1014600008433F4B186070473E49C8617047F0B56C
:101470000A46002300240021002500F00046B6F1B2
:10148000004F02D1364EF16901E0354E7168C0F36C
:10149000034583B200F44016B6F5401F08D121F091
:1014A00070612F4E766826F070662D4F7E6012E0D8
:1014B00000F48016B6F5801F06D1032606FA05F45F
:1014C000A14341F0706106E0460D360103FA06F6CD
:1014D000B14341F0706122B1460D360103FA06F6C0
:1014E000314300F00046B6F1004F02D11C4EF161CD
:1014F00001E01B4E7160F0BD30B500228B071C0F60
:101500000F2303FA04F2164B08338C1053F82430DF
:101510009343134C08348D1044F8253023468C1027
:1015200053F824308C07240F00FA04F423430C4CA6
:1015300008348D1044F8253030BD0A49DC3108608C
:101540007047000000080140000C014000100140FD
:101550000014014000180140001C0140002001401F
:101560000000014000002042DF48006840F0010018
:10157000DD49086008464068DC490840DA494860AF
:1015800008460068DA490840D749086008460068FC
:1015900020F4802008600846406820F4FE0048607F
:1015A0004FF41F0088607047CF49096821F48031EB
:1015B000CD4A11601146096821F480211160B0F50F
:1015C000803F03D0B0F5802F0ED106E0C6490968F0
:1015D00041F48031C44A116007E0C349096841F40D
:1015E000A021C14A116000E000BF00BF704710B5E4
:1015F00001460022002300204A11012A02D1BA4CE0
:10160000236806E0022A02D1B74C236A01E0B64CF7
:10161000636A01F01F02012494401C400CB10120B8
:1016200000E0002010BD38B5002000900024002507
:1016300000BF3120FFF7DBFF05460098401C0090FB
:101640000098B0F5A06F01D0002DF2D03120FFF747
:10165000CEFF08B1012400E00024204638BD014639
:101660000020A14A106820F0F80040EAC100106094
:101670007047A04908607047024600209A4B58689E
:1016800020F47C1042EA01031843974B58607047DE
:1016900098490866704701460020934A506820F038
:1016A00003000843506070478F48406800F00C000A
:1016B0007047014600208C4A506820F0F000084333
:1016C0005060704701460020874A506820F4E0606F
:1016D00008435060704701460020834A506820F458
:1016E000605040EAC1005060704729B17E4A527A8A
:1016F00002437D4B5A7204E07B4A527A82437A4B12
:101700005A7270477B49D831086070470146002003
:10171000754A506820F440400843506070470021EB
:10172000714A20321170704A82F82010012802D0CC
:1017300004280AD104E001216B4A2032117005E02F
:101740000521694A2032117000E000BF00BF7047D8
:101750006949086070476449096A0143624A116235
:101760007047654944390860704730B50021002250
:10177000002400235C4D6D6805F00C0121B10429A3
:1017800005D0082923D105E05C4D056022E05B4DC2
:1017900005601FE0544D6D6805F47012524D6D6880
:1017A00005F48034022505EB92421CB9544D554393
:1017B00005600BE04C4D6D6805F400351DB1504DD2
:1017C0005543056002E04D4D5543056002E04B4D29
:1017D000056000BF00BF444D6D6805F0F0010909C8
:1017E000484D6B5C0568DD4045603F4D6D6805F414
:1017F000E061090A434D6B5C4568DD4085603A4D08
:101800006D6805F46051C90A3E4D6B5C4568DD406A
:10181000C560354D6D6805F44041890B3A4D6B5CF0
:10182000C568B5FBF3F5056130BD29B12E4A526993
:1018300002432D4B5A6104E02B4A526982432A4BE2
:101840005A61704729B1284A92690243264B9A612E
:1018500004E0254A92698243234B9A61704729B17B
:10186000214AD2690243204BDA6104E01E4AD26960
:1018700082431D4BDA61704729B11B4AD26802438B
:10188000194BDA6004E0184AD2688243164BDA60DA
:10189000704729B1144A12690243134B1A6104E0DC
:1018A000114A12698243104B1A617047124940393C
:1018B000086070470F49C86470470B49C87170478A
:1018C0000948406A40F08070074948627047014605
:1018D0000020054A92680A400AB1012000E0002079
:1018E0007047014988727047001002400000FFF8FD
:1018F000FFFFF6FE000042428004424200127A00DE
:1019000000093D00220000203200002010B50446EE
:10191000FB48844209D101218803FFF7ADFF002174
:101920004FF48040FFF7A8FF32E0F648844209D127
:1019300001214804FFF7ADFF00214FF40030FFF70D
:10194000A8FF25E0F048844209D101218804FFF76F
:10195000A0FF00214FF48020FFF79BFF18E0EB4829
:10196000844209D10121C804FFF793FF00214FF4FD
:101970000020FFF78EFF0BE0E548844208D10121EB
:101980000805FFF786FF00214FF48010FFF781FF65
:1019900010BD2DE9F04786B005460E460024A2464C
:1019A00000BFA1460027B08900B100BF2F462C8A96
:1019B0004CF6FF700440F08804432C82AC894EF64C
:1019C000F3100440B0883189084371890843044307
:1019D000AC81AC8A4FF6FF400440B0890443AC822E
:1019E00001A8FFF7C2FEC648874202D1DDF810A069
:1019F00001E0DDF80CA0A88900F4004040B10AEB3A
:101A0000CA0000EB0A1031684900B0FBF1F807E0AA
:101A10000AEBCA0000EB0A1031688900B0FBF1F84C
:101A20006420B8FBF0F004012009642101FB108957
:101A3000A88900F4004040B1322000EBC900B0FB9F
:101A4000F1F000F00700044308E0322000EB091039
:101A50006421B0FBF1F000F00F0004432C8106B0CC
:101A6000BDE8F0874FF41651016000218180C180EC
:101A700001810C21418100218181704710B502460E
:101A80000020108A4FF2FF0318400B884C88234334
:101A90008C882343CC8823431843108210BD002137
:101AA000018041808180C180704721B1828942F4E8
:101AB0000052828104E082894DF6FF731A408281D0
:101AC0007047F0B50346002400260025002040F6AC
:101AD0006A17B94200D100BF1846C1F3421401F0A1
:101AE0001F06012707FA06F5012C01D10C3004E08E
:101AF000022C01D1103000E014301AB107682F43D6
:101B0000076002E00768AF430760F0BD1AB1838A3F
:101B10000B43838202E0838A8B4383827047028A6D
:101B20004FF6F0731A400282028A0A43028270471B
:101B300082894FF2FF731A40828182890A4382812F
:101B4000704721B1828942F00202828104E08289D9
:101B50004FF6FD731A4082817047028A4FF6DF7399
:101B60001A400282028A0A430282704721B1028A25
:101B700042F48042028204E0028A4BF6FF731A406C
:101B800002827047C1F3080282807047014688884C
:101B9000C0F308007047818941F0010181817047DD
:101BA000028BD2B20283028B42EA01220283704787
:101BB000028B02F47F420283028B0A430283704746
:101BC00021B1828A42F02002828204E0828A4FF6AA
:101BD000DF731A408282704721B1828A42F010027C
:101BE000828204E0828A4FF6EF731A408282704745
:101BF00021B1828A42F00802828204E0828A4FF692
:101C0000F7731A408282704721B1828942F4004200
:101C1000828103E08289C2F30E028281704721B182
:101C2000828A42F40062828204E0828A4FF2FF7369
:101C30001A4082827047828A4FF6FB731A40828272
:101C4000828A0A438282704721B1828A42F002026C
:101C5000828204E0828A4FF6FD731A4082827047C6
:101C600002460020B1F5007F00D100BF13880B4071
:101C70000BB1012000E00020704701F40072B2F5C2
:101C8000007F00D100BFCA430280704770B5024692
:101C9000002400230025002040F66A16B14200D13E
:101CA00000BFC1F3421501F01F03012606FA03F33A
:101CB000012D02D19689334006E0022D02D1168A09
:101CC000334001E0968A33400C12012606FA04F4F0
:101CD0001688344013B10CB1012000E0002070BD23
:101CE00010B50022002340F66A14A14200D100BFC3
:101CF0000A1201249440A3B2DC43048010BD00000A
:101D0000003801400044004000480040004C0040C2
:101D100000500040002044490860091D0860091D6A
:101D20000860091D086041483F4914310860704748
:101D300000213D498279002A3AD00A461268036898
:101D40009A430B461A600A1D126803689A430B1DDA
:101D50001A60027911440A6803681A430A60324A19
:101D60000832126803689A432F4B08331A601A1D11
:101D7000126803689A432C4B0C331A604279102A7C
:101D80000ED11A1F126803681A43274B08331A60D2
:101D90001A1D126803681A43234B0C331A600DE0B6
:101DA0002149427911440A6803681A430A6005E030
:101DB000027911440A6803689A430A607047002157
:101DC000016001710C214171002181717047164938
:101DD000103109680143144A1032116070470146FE
:101DE0000020114A143212680A400AB1012000E0B2
:101DF000002070470C4914310860704701460020EC
:101E00000022094B1B6803EA0102074B14331B68CD
:101E10000B4013B10AB1012000E0002070470249D5
:101E2000143108607047000000040140FFFF0F00FC
:101E300010B50446BE48844208D101218014FFF742
:101E40001BFD0021A014FFF717FD16E0B9488442DE
:101E500008D101210014FFF71CFD00212014FFF719
:101E600018FD0AE0B448844207D10121C013FFF7EE
:101E700010FD0021E013FFF70CFD10BD10B500228E
:101E8000028802F441520B884C8823438C882343F8
:101E9000CC8823430C8923434C8923438C892343D7
:101EA000CC8923431A430280838B4FF2FF74234073
:101EB00083830B8A038210BD2DE9F04F85B0054660
:101EC0000C464FF0000902274FF000084FF0010BBD
:101ED0000026B246A88B4FF240010840A88302209A
:101EE0002884B5F81C90A068022801D100BF38E012
:101EF000A08810B94FF0010B01E04FF0020B8D48A4
:101F0000854200D100E000BF6846FFF72EFCDDF8F7
:101F100000A0E088B0F5007F0AD14FEA1A2000EB5C
:101F200080004000A168B0FBF1F0401D86B20BE0DC
:101F30004FEA4B10BAFBF0F000EB80004000A168C4
:101F4000B0FBF1F0401D86B20A20B6FBF0F606F0B9
:101F50000108A6EB0800C0F34F074FF6FF7000EA38
:101F60000828022F01DBFF2F02DD02274FF00008B7
:101F7000E08840EA080038432884A088A189084303
:101F8000618808432188084340F4006040EA090959
:101F9000A5F81C9005B0BDE8F08F002101804180BC
:101FA0008180C180018141818181C18107210182BC
:101FB00070470021018041808180C18002218160C1
:101FC00000218181704721B1028842F040020280E5
:101FD00004E002884FF6BF731A400280704721B1B7
:101FE000828B42F48062828304E0828B4FF6FF335F
:101FF0001A408283704730B5002400230C1101255C
:10200000A540ABB21AB185881D43858002E0858862
:102010009D43858030BD1AB183880B43838002E0E5
:1020200083888B438380704781817047014688890C
:1020300070474FF6FF62914204D0028842F48072EA
:10204000028004E002884FF6FF631A400280704766
:1020500021B1828842F00402828004E082884FF637
:10206000FB731A408280704702884FF2FF731A4058
:10207000028002880A4302807047018841F480513F
:102080000180704721B1028842F40052028004E0CE
:1020900002884DF6FF731A40028070470246002006
:1020A000012901D0108B00E0908A70470146088A10
:1020B0007047B1F5804F04D1028842F4804202801B
:1020C00004E002884BF6FF731A4002807047024614
:1020D000002013890B400BB1012000E00020704765
:1020E000CA4302817047F0B5024600200024002355
:1020F000002501F00F070126BE40B4B20B110126E6
:102100009E40B3B2968806EA03051689264016B1AA
:102110000DB1012000E00020F0BD10B5002201F05B
:102120000F040123A3409AB2D343038110BD0000E2
:102130000030014000380040003C004010B504462B
:102140002CB90120F94909680882002010BDF8491E
:10215000096808688047F54800680A30F6E710B556
:10216000F2480068C078F3494978884213DCEF48A8
:102170000068807878B9ED480068808858B9EB48E5
:102180000068C078E94909688872E94909684868BF
:102190008047002010BD0220FCE710B504462CB992
:1021A0000120E24909680882002010BDE049096861
:1021B00088688047DD4800680C30F6E710B5DB4BD7
:1021C0001B68D978D94B1B685879DB4B1B689A6917
:1021D00090470446D5480068807AE8B13CB9D348B6
:1021E0000068007918B9D1480068807808B10220E9
:1021F00010BD8CB9CE490968C8688047CB480068D3
:102200004079CA490968C872C8480068C078C74997
:10221000096808730020EBE70220E9E710B50446DF
:102220002CB90220C14909680882002010BD002095
:10223000C2490880BD480068007800F07F00E0B91E
:10224000BA490968487A00F0200129B1BB490978E8
:1022500041F00201B94A117000F0400131B1B749B3
:10226000097801F0FE01B54A117005E0B34909781B
:1022700041F00101B14A11703AE0AC4800680078C1
:1022800000F07F00012801D1AC48CFE7A7480068E3
:10229000007800F07F00022828D1A44A1268517902
:1022A00001F00F0001F080027AB1A54B03EB800230
:1022B000D2F8002C02F03002102A16D19F4A127870
:1022C00042F001029D4B1A700FE09D4B03EB800220
:1022D000D2F8002C02F44052B2F5805F05D1974A43
:1022E000127842F00102954B1A7001E000209DE740
:1022F0008F49096808698047904897E72DE9F047BA
:102300008A480068007800F07F08B8F1000F0AD111
:1023100086480068407A00F0DF0084490968487206
:102320000020BDE8F087B8F1020F7DD17F4800683A
:10233000408818B97D480068007908B10220F0E7AC
:10234000DFF8F09179480068477927F080052C463E
:1023500076480068407900F0800038B1784901EB98
:102360008400D0F8000C00F0300606E0744901EB60
:102370008400D0F8000C00F4405699F80000A84200
:1023800004D91EB169480068807A08B90220C8E7FC
:1023900007F0800080B16A4901EB8400D0F8000C9E
:1023A00000F03000102843D1E0B201F013F8E0B2A1
:1023B000302100F0BCFE3BE0614901EB8400D0F825
:1023C000000C00F44050B0F5805F31D1C4B95D4AD3
:1023D00092F82C10E0B201F088F8594A02EB84011F
:1023E000D1F8001C4BF68F7201EA020080F4805095
:1023F00080F40050524A02EB8401C1F8000C17E04F
:10240000E0B200F0D0FF4E4A02EB8401D1F8001C8C
:102410004BF68F7201EA020080F4805080F4005085
:10242000474A02EB840100E008E0C1F8000C00BF5D
:102430003F49096848698047002072E700BF0220D1
:102440006FE72DE9F04139480068467926F08007AA
:102450003C4636480068407900F0800038B1384981
:1024600001EB8400D0F8000C00F0300506E03449A0
:1024700001EB8400D0F8000C00F440552D480078A2
:10248000A04208D929480068408820B91DB12748D2
:102490000068807A10B90220BDE8F08106F0800063
:1024A00080B1274A02EB8401D1F8001C48F6BF72C4
:1024B00001EA020080F01000214A02EB8401C1F819
:1024C000000C10E01E4A02EB8401D1F8001C4BF610
:1024D0008F7201EA020080F48050194A02EB8401F5
:1024E000C1F8000C00BF12490968886980470020C4
:1024F000D2E710B50D480068407A40F020000B4943
:10250000096848720A490968C8698047002010BDF7
:1025100010B5024605480068438AAAB98888C01ADF
:10252000024C24682082002010BD000040000020E2
:102530004C000020B00000204400002036000020A5
:1025400000500040B400002008681844ECE72DE972
:10255000F041FE48006800F110042688A068C0B170
:10256000BEB1A588B54200D93546A8B2A168884752
:1025700007462088401B2080608828446080002017
:1025800000F085FF8046AAB24146384600F06AFD59
:1025900000BF208850B14FF44050ED490880002121
:1025A000084600F080FF3020EA4908802088A18892
:1025B000884204DB0320E5490968087218E0208896
:1025C000002804DD0520E1490968087210E0208830
:1025D00070B90620DD49096808720021DE480068EC
:1025E00080B2801CDD4A42F810103020D9490880A2
:1025F000BDE8F0812DE9F047D448006800F11005EE
:102600002E88D2480068077AD6B9042F18D1D4484A
:10261000007801280FD10021CF48006880B2801CCB
:10262000CE4A42F810103020CA49088000BF00206E
:10263000CB49087003E007271020C649088027E02F
:10264000AC88A64201D8042000E002200746B4422C
:1026500000D93446A0B2A96888478046002000F01F
:102660000BFF8146A2B24946404600F0E1FCA1B210
:10267000002000F018FF2888001B2880688820446C
:1026800068803020B34908800002B149088000BF4B
:10269000AE4909680F72BDE8F08770B50226AB48F5
:1026A00000684478A9480068007800F07F0000289E
:1026B0004AD1092C03D1FFF752FD064665E0052CEF
:1026C00014D1A2480068C0787F280BDC9F480068BE
:1026D000807838B99D480068808818B99B480068A0
:1026E000807A08B108256BE000264EE0032C14D157
:1026F00096480068C07801280DD194480068808809
:1027000048B992480068407A00F0200018B1FFF7FD
:10271000F0FE064639E0022637E0012C35D18B4821
:102720000068C07801280DD188480068808848B9C1
:1027300086480068407A00F0200018B1FFF7DEFDFF
:10274000064622E0022620E080480068007800F07B
:102750007F00012805D10B2C17D1FFF72FFD06466E
:1027600013E07A480068007800F07F0002280BD15F
:10277000012C03D1FFF7C2FD064606E0032C04D16D
:10278000FFF75FFE064600E002264EB1E0B2754A52
:102790001268516988470646032E01D109250FE0CA
:1027A0000EB108250CE0062500216B48006880B2B8
:1027B000801C6A4A42F8101030206649088000BF29
:1027C000624909680D7270BD2DE9F84F5F480068D5
:1027D00045780027BA46062D1BD15C480068007872
:1027E00000F07F00002813D1584909688878012833
:1027F00003D15C490968CF690AE0022803D159492D
:1028000009680F6A04E0032802D1564909684F6A33
:1028100099E0002D67D14D4800684088002862D1BA
:102820004A480068C08802285DD14848006800799D
:10283000002858D145480068007800F07F0030B982
:1028400042480068808810B9AFF22F677BE03F48AC
:102850000068007800F07F00012811D13B49096829
:102860004879404909688A690021904700286AD15F
:1028700036480068807A002865D0AFF25F6762E072
:1028800032480068007800F07F0002285BD12F48B2
:102890000068407900F00F062C480068407900F08D
:1028A00070092A480068407900F0800038B12E494C
:1028B00001EB8600D0F8000C00F0300806E02A4951
:1028C00001EB8600D0F8000C00F44058274800784F
:1028D000B04238D9B9F1000F35D1B8F1000F32D07C
:1028E000AFF2C7672FE0082D08D1184800680078BC
:1028F00000F07F0038BBAFF2BB7724E00A2D22D175
:1029000012480068007800F07F0001281BD10F48B2
:102910000068807AB8B10D480068408898B90B48C3
:102920000068007978B909480068C08801280AD190
:102930000649096848790B4909688A690021904766
:1029400008B9AFF2A977EFB1004811E040000020CC
:102950005000002052000020505C00400060004009
:10296000380000204400002000500040B00000204B
:102970000068A0F812A0AE48006887610020B84740
:1029800000240FE0AA4A12685078AA4A1268116916
:1029900088470446032C05D10920A5490968087217
:1029A000BDE8F88FA2480068008A4FF6FF718842A0
:1029B00004D109209E4909680872F1E7022C03D06E
:1029C0009B480068008A20B9082099490968087264
:1029D000E6E797480068007800F08000E0B394488C
:1029E0000068C088009092480068008A0099884278
:1029F00004D98F4900980968088223E08C48006850
:102A0000008A8B490968C98888421BDA88480068AF
:102A1000008A8849096891F82C10884203DA00205E
:102A2000854908700EE082480068008A814909687B
:102A300091F82C1090FBF1F201FB120010B901206B
:102A40007D4908707B48006890F82C107848006831
:102A50008182FFF7CFFD07E0FFE703207449096893
:102A6000087200037549088000BF99E710B57448E3
:102A700090F82C10002000F038FD6D480068007AB6
:102A8000082805D140026D49088010206D49088052
:102A900067480068007A092801D1012010BD002094
:102AA000FCE708B56848006880B2001D674931F846
:102AB000100080B201EB400000905D480068007A91
:102AC00009282FD0009800785949096808700098A3
:102AD000401C00900098007855490968487000989B
:102AE000401C00900098801C0090009931F8020B67
:102AF000009100F09BFE4E49096848800098801CB8
:102B00000090009931F8020B009100F08FFE4849C7
:102B1000096888800098801C0090009800884449CB
:102B20000968C88001204249096808724048006865
:102B3000C08810B9FFF7B1FD01E0FFF745FEFFF7D0
:102B400095FF08BD30B50146414B1A78002011E0D1
:102B50000306404C04EB9353D3F8003C48F68F74C3
:102B60002340C4B2234304063A4D05EB9454C4F801
:102B7000003C401C9042EBD341F08003324C241FB8
:102B8000236030BD10B52A480068047A022C01D0B9
:102B9000042C05D1FFF72EFD25480068047A1CE0BF
:102BA000062C19D122480068407805280ED120480B
:102BB0000068007800F07F0040B91D490968C878B6
:102BC000FFF7C0FF24490968086A80471949096866
:102BD00088688047082400E00824154909680C72B9
:102BE000FFF744FF10BD10B511480068047A032CAC
:102BF00001D0052C05D1FFF7AAFC0D480068047A26
:102C00000EE0072C05D10B490968C86880470824E5
:102C100006E0022C01D0042C01D1082400E0082495
:102C2000034909680C72FFF721FF10BD70470000CF
:102C30004000002044000020380000205000002008
:102C4000B400002052000020505C004000600040B2
:102C5000B0000020005000404C00002010B50024BF
:102C600073E147F6FF70EA490860EA48008800F01F
:102C70000F00E94908700846007800287ED1E44832
:102C80004438006800F44050E4490880E048443883
:102C9000006800F03000E2490880DD4944390968E5
:102CA0004BF68F7201EA020080F40050D849443993
:102CB0000860096848F6BF7201EA020080F020004F
:102CC000D34944390860D348008800F01000002838
:102CD00038D10846006848F60F710840CC4944399D
:102CE0000860FFF74FFFCA49443909684BF68F72F5
:102CF00001EA0200C949098801F4805109B180F450
:102D00008050C649098801F4005109B180F400508F
:102D1000BF4944390860096848F6BF7201EA0200F9
:102D2000BF49097801F0100109B180F01000BC49D9
:102D3000097801F0200109B180F02000B44944393C
:102D4000086010BDB2484438006884B204F08000C6
:102D5000D8B3AF484438006848F60F710840AC4912
:102D600044390860FFF70EFFA949443909684BF65A
:102D70008F7201EA0200A949098800E0A6E001F487
:102D8000805109B180F48050A449098801F40051B0
:102D900009B180F400509E4944390860096848F63A
:102DA000BF7201EA02009E49097801F0100109B1E1
:102DB00080F010009A49097801F0200109B180F0F3
:102DC0002000934944390860BBE7FFE704F4006042
:102DD000D8B38F4844380068C0F30E0048F68F71AE
:102DE00008408B4944390860FFF75BFE8849443945
:102DF00009684BF68F7201EA02008849098801F4DC
:102E0000805109B180F480508449098801F400514F
:102E100009B180F400507E4944390860096848F6D9
:102E2000BF7201EA02007E49097801F0100109B180
:102E300080F010007A49097801F0200109B180F092
:102E400020007349443908607BE7FFE704F4004041
:102E500000287AD06E4844380068C0F30E0048F667
:102E60008F7108406A4944390860FFF7BCFE684921
:102E7000443909684BF68F7201EA020067490988F4
:102E800001F4805109B180F480506449098801F44B
:102E9000005109B180F400505D4944390860096867
:102EA00048F6BF7201EA02005D49097801F010019D
:102EB00009B180F010005A49097801F0200109B1E8
:102EC00080F020005249443908603AE752480078BF
:102ED000544901EB8000D0F8000C84B204F40040A7
:102EE000C0B14D48007801EB8000D0F8000CC0F371
:102EF0000E0048F68F71084047490978494A02EBAD
:102F00008101C1F8000C44490978491E464A52F82B
:102F10002100804704F08000B8B13F480078414963
:102F200001EB8000D0F8000C48F60F7108403A49D8
:102F300009783C4A02EB8101C1F8000C3649097856
:102F4000491E3A4A52F8210080473148006880B251
:102F50003049088000F4004000287FF482AE00BFB2
:102F6000EFE610B5002449E047F6FF7028490860F5
:102F70002848008800F00F002749087008460078AC
:102F8000284901EB8000D0F8000C84B204F4004022
:102F9000C8B12148007801EB8000D0F8000CC0F3E4
:102FA0000E0048F68F7108401B4909781D4A02EB54
:102FB0008101C1F8000C18490978491E1A4A52F8D3
:102FC000210080471AE004F08000B8B11248007870
:102FD000144901EB8000D0F8000C48F60F7108404E
:102FE0000D4909780F4A02EB8101C1F8000C0A492A
:102FF0000978491E0D4A52F82100804704480068AC
:1030000080B20449088000F400400028ACD110BD13
:10301000445C0040700000203C0000205000002074
:10302000520000200050004090000020740000205A
:10303000F0B5144604F1010C4FEA6C07DFF848C004
:103040000CEB41033D460AE00678401C90F800C0B6
:1030500046EA0C2223F8022B9B1C401C6D1E002DFF
:10306000F2D1F0BDF0B5561C7510074E06EB4104C9
:103070002B4605E034F8047B20F8017B401C5B1EE6
:10308000002BF7D1F0BD000000600040F749086058
:103090007047F648006880B27047F449091D08601F
:1030A0007047F248001D006880B27047EF48083052
:1030B000006880B27047ED490C3108607047EB48FA
:1030C0000C30006880B270474FF6F8710140E74A53
:1030D000103211607047E5481030006880B27047C8
:1030E000E34B03EB8002C2F8001C70470146E04A44
:1030F00002EB8100D0F8000C80B2704710B5DC4BB9
:1031000003EB8002D2F8002C48F68F131A400A43D2
:10311000D74C04EB8003C3F8002C10BD0146D44A01
:1031200002EB8100D0F8000C00F4C060704710B5CD
:10313000CF4C04EB8003D3F8003C48F6BF7403EA9D
:10314000040201F010030BB182F0100201F0200321
:103150000BB182F02002C64C04EB8003C3F8002CB4
:1031600010BD10B5C24C04EB8003D3F8003C4BF605
:103170008F7403EA040201F480530BB182F480528D
:1031800001F400530BB182F40052B94C04EB8003FC
:10319000C3F8002C10BD30B503460C461846FFF7A7
:1031A000A5FF0546012C07D125F48050B04A02EB5B
:1031B0008301C1F8000C08E0022C06D125F01000B4
:1031C000AB4A02EB8301C1F8000C30BD0146A84AAE
:1031D00002EB8100D0F8000C00F03000704701468F
:1031E000A34A02EB8100D0F8000C00F44050704775
:1031F0009F4B03EB8002D2F8002C48F6BF7302EA23
:10320000030181F0100181F02001994B03EB800252
:10321000C2F8001C7047964B03EB8002D2F8002CDA
:103220004BF68F7302EA030181F4805181F400515F
:103230008F4B03EB8002C2F8001C70478C4A02EBF4
:103240008001D1F8001C41F4807148F68F72114062
:10325000874B03EB8002C2F8001C7047844A02EBE4
:103260008001D1F8001C48F68F621140804B03EBBF
:103270008002C2F8001C70477D4A02EB8001D1F841
:10328000001C48F68F621140794B03EB8002C2F8B4
:10329000001C7047764A02EB8001D1F8001C41F413
:1032A000807148F68F721140714B03EB8002C2F8B7
:1032B000001C70476E4A02EB8001D1F8001C41F4FB
:1032C000807148F68F721140694B03EB8002C2F89F
:1032D000001C7047664A02EB8001D1F8001C48F6DA
:1032E0008F621140624B03EB8002C2F8001C7047F2
:1032F00001465F4A02EB8100D0F8000C00F030007C
:10330000102801D1012070470020FCE70146584AEF
:1033100002EB8100D0F8000C00F44050B0F5805F63
:1033200001D1012070470020FCE7514A02EB8001E7
:10333000D1F8001CC1F30E0148F68F7211404C4BBE
:1033400003EB8002C2F8001C7047494A02EB80017F
:10335000D1F8001C48F60F721140454B03EB800278
:10336000C2F8001C7047424A02EB8001D1F8001CF1
:1033700048F68F72114041F480413D4B03EB8002CF
:10338000C2F8001C70473A4A02EB8001D1F8001CD9
:1033900048F68F72114041F04001354B03EB80023B
:1033A000C2F8001C7047324A02EB8001D1F8001CC1
:1033B00001F4804169B102EB8001D1F8001C48F6AC
:1033C0008F72114041F48041294B03EB8002C2F817
:1033D000001C7047264A02EB8001D1F8001C01F066
:1033E000400169B102EB8001D1F8001C48F68F72F0
:1033F000114041F040011E4B03EB8002C2F8001C5B
:10340000704710B51A4B03EB8002D2F8002C48F637
:103410008F731A400A43164C04EB8003C3F8002C48
:1034200010BD0146124A02EB8100D0F8000C00F0FA
:103430000F00704710B54A1052000C4B10331B6838
:103440009BB203EBC0030B4C44F8132010BD10B526
:103450004A105300054A1032126892B202EBC002C1
:10346000121D044C44F8123010BD0000405C0040B6
:1034700000500040006000400146EF48006880B204
:1034800000EBC100ED4A32F8100080B270470146EF
:10349000E948006880B200EBC100001DE74A32F83D
:1034A000100080B27047E44A126892B202EBC00288
:1034B000921CE24B43F81210704702463E290BDD86
:1034C000481101F01F030BB9431E98B24FF400439B
:1034D00043EA8023136007E0481001F001030BB1B9
:1034E000431C98B283021360704710B50246D2485D
:1034F000006880B200EBC200801DD04C04EB40039A
:103500003E290BDD481101F01F040CB9441EA0B286
:103510004FF4004444EA80241C6007E0481001F0A6
:1035200001040CB1441CA0B284021C6010BD014611
:10353000C148006880B200EBC100801CBF4A32F86D
:103540001000C0F3090070470146BB48006880B214
:1035500000EBC100801DB94A32F81000C0F3090029
:10356000704730B54B105B00B34C2468A4B204EB39
:10357000C004B24D45F8143053105C00AE4B1B68CC
:103580009BB203EBC0031B1D45F8134030BD10B5C3
:103590004A105200A84B1B689BB203EBC003A74C18
:1035A00044F8132010BD10B54A105300A24A126807
:1035B00092B202EBC002121DA04C44F8123010BDB2
:1035C00001469D48006880B200EBC1009B4A32F87A
:1035D000100080B2704701469748006880B200EB47
:1035E000C100001D954A32F8100080B2704730B516
:1035F0000B46012B1FD19049096889B201EBC0012C
:10360000891C8E4D05EB41043E2A0BDD511102F061
:103610001F050DB94D1EA9B24FF4004545EA81259D
:10362000256007E0511002F001050DB14D1CA9B253
:103630008D0225600AE0022B08D17F49096889B212
:1036400001EBC001891C7D4C44F81120012B1FD1D6
:103650007949096889B201EBC001891D774D05EBF5
:1036600041043E2A0BDD511102F01F050DB94D1E1C
:10367000A9B24FF4004545EA8125256007E05110C5
:1036800002F001050DB14D1CA9B28D0225600AE0C2
:10369000022B08D16849096889B201EBC001891D74
:1036A000664C44F8112030BD30B5034601291FD1C6
:1036B0006148006880B200EBC300801C5F4D05EBE1
:1036C00040043E2A0BDD501102F01F050DB9451EC6
:1036D000A8B24FF4004545EA8025256007E0501068
:1036E00002F001050DB1451CA8B2850225600AE073
:1036F000022908D15048006880B200EBC300801C4A
:103700004E4C44F8102030BD30B5034601291FD17E
:103710004948006880B200EBC300801D474D05EBAF
:1037200040043E2A0BDD501102F01F050DB9451E65
:10373000A8B24FF4004545EA8025256007E0501007
:1037400002F001050DB1451CA8B2850225600AE012
:10375000022908D13848006880B200EBC300801D00
:10376000364C44F8102030BD01463348006880B222
:1037700000EBC100801C314A32F81000C0F3090090
:10378000704701462C48006880B200EBC100801DE4
:103790002A4A32F81000C0F3090070470146264853
:1037A000006880B200EBC100801D244A32F810008E
:1037B00000F47C4008B1012070471F48006880B2C7
:1037C00000EBC100801C1D4A32F81000C0F3090054
:1037D00008B10220F0E70020EEE710B501290FD173
:1037E000174B03EB8002D2F8002C48F68F731A4077
:1037F00042F04002124C04EB8003C3F8002C10E0AE
:1038000002290ED10E4B03EB8002D2F8002C48F6B1
:103810008F731A4042F48042094C04EB8003C3F8D2
:10382000002C10BD024641EA022070470146CAB290
:103830000B1243EA02207047505C004000600040D9
:103840000050004010B50020FDF75CFF0121C805C5
:10385000FEF705F810BD03203C49086070473C485E
:10386000817A19B10521394A116002E00121374AF4
:10387000116070470EB54FF4A060FDF759FC4FF48E
:103880008020FEF7CCFA4FF48020009008208DF8BD
:10389000050001208DF806006846FEF749FA14205D
:1038A0008DF8080001208DF8090000208DF80A002D
:1038B00001208DF80B0002A8FDF73FFC2A208DF8AF
:1038C000080000208DF8090002A8FDF736FC0EBDA7
:1038D0002DE9F84304460D4616461F460020009089
:1038E0008DF800408DF801508DF802608DF803705E
:1038F0000120FFF7C1FD8046042241466846FFF7DC
:1039000097FB0120FFF774FCBDE8F88310B5114B5D
:1039100018681B1D19681B1D1A68A8B10E4CA070F1
:10392000030A2371030CA371030E2372A1720B0A05
:1039300023730B0CA3730B0E2374A274130A237549
:10394000130CA375130E237610BD00004801002050
:1039500018020020E8F7FF1F5400002010B5374878
:103960000068374908800846008800F480603549BF
:103970000988084030B14FF6FF30304908603249BD
:10398000486880472E48008800F400502D49098877
:10399000084018B14DF6FF70284908602848008893
:1039A00000F4805027490988084030B14EF6FF7076
:1039B00022490860002000F0ABF92148008800F49B
:1039C000006020490988084060B12048007810B1A3
:1039D00000F07EF902E0022000F09AF94FF2FF7049
:1039E000164908601648008800F4007015490988D7
:1039F000084040B14FF6FF50104908601448007865
:103A0000401C134908700E48008800F480700D496E
:103A10000988084030B14FF6FF6008490860072068
:103A200000F076F90648008800F40040054909884E
:103A3000084008B1FFF712F910BD0000445C0040D7
:103A4000700000204A000020B40000204C0100203B
:103A50007200002010B5FFF759FF00207E49096869
:103A6000887200F013F900207C4908604FF43F4051
:103A70007B490880084600887849091F08600020B3
:103A80007849086010BD10B5002073490968887234
:103A900071490968C8727448C0796F4909684872E9
:103AA0000020FFF711FB4FF400710020FFF726FB09
:103AB00010210020FFF73BFB18210020FFF7C7FC77
:103AC00058210020FFF7B6FC0020FFF7D5FB674820
:103AD00090F82C100020FFF708FD0020FFF79BFB5B
:103AE0004FF4C0610120FFF709FB4FF48071012002
:103AF000FFF7A0FC04210120FFF7D5FC00210120E5
:103B0000FFF72FFB20210120FFF711FB0120554972
:103B100008600020FFF716F810BD5548817A11B1F2
:103B20000521504A1160704704204E4908607047D3
:103B300070477047014629B90120474A1268108230
:103B4000002070474B48FCE710B504464A49204620
:103B5000FEF7DEFC10BD10B5044648492046FEF7CE
:103B6000D7FC10BD70B504460025062C1AD13A4882
:103B70000068007800F07F00012813D13648006803
:103B8000407978B9344800688078222802D1AFF2B1
:103B9000390512E030480068807821280DD1AFF255
:103BA00057050AE02C480068007800F07F002128C3
:103BB00003D1032C01D1AFF283050DB9022070BDF2
:103BC0002548006885610021234800684182002063
:103BD000A8470020F3E720480068C1782548016025
:103BE0000020704700B502461B480068007800F0CE
:103BF0007F00212804D10B2A02D1FFF7ECFF00BD82
:103C00000220FCE710B504461D492046FEF780FC63
:103C100010BD10B504461B492046FEF779FC10BDC7
:103C200070B505460C480068C478042C01DD0020FE
:103C300070BD154800EBC4012846FEF769FCF7E7A4
:103C40000246002901DD02207047002A01DD022022
:103C5000FAE70020F8E7000040000020445C004044
:103C60004A0000204801002064480008B4000020F9
:103C700018020020AC0000202001002018010020C4
:103C800008010020100100202801002001214A48DD
:103C900001600020494A108010460088464A1060A2
:103CA0000020121D10604FF4E050444A108010466E
:103CB0000088414A10600020704701203E4908609A
:103CC0000020091D08600320091F086000207047BC
:103CD00010B53948006884B244F0080436480460DE
:103CE000006884B244F0040433480460FFF7B3FD75
:103CF00010BD10B53048006884B224F004042E488A
:103D00000460FFF7ACFD4FF43F402B49086010BD45
:103D100070B50546072D01D0294805702848007860
:103D2000082841D2DFE800F0040A1016212E414293
:103D3000FFF7DFFF0620224908703BE0FFF7D9FFBD
:103D400004201F49087035E002201D4948700320F7
:103D500008702FE01A484078401E194948700846FC
:103D6000407808B90420087024E01348006884B241
:103D700044F01004104804600520114908700A201E
:103D8000487017E00E484078401E0D4948700846BC
:103D9000407840B90848006884B224F0100406480E
:103DA00004600620087005E000BF00BF062004493B
:103DB000087000BF00BF70BD405C00404A0000209A
:103DC0004D010020704700000FB4044910B503AA4C
:103DD000029800F04DF910BC5DF814FB1C000020A7
:103DE00070B5044685690068C10601D5302600E03B
:103DF0002026C00707D070BDD4E901213046904786
:103E0000206A401C20626D1EF6D570BD70B5044658
:103E100085690078C00707D170BDD4E90121202051
:103E20009047206A401C20626D1EF6D570BD0000D0
:103E30002DE9F0410646002410687529314616A583
:103E400010D0AFF30080002802DA404213A507E04B
:103E500031688A0701D512A502E0490704D511A5EA
:103E6000012401E0AFF3008000210A2206F12407BB
:103E700009E0B0FBF2FCB0FBF2F302FB1C003030B7
:103E800078541846491C0028F3D123462A46304668
:103E9000BDE8F04100F093B8000000002D000000E4
:103EA0002B000000200000002DE9F0474FF0000A31
:103EB00089460446C0F820A02046E16888470028CB
:103EC00076D0252806D0D4E901219047206A401CED
:103ED0002062F1E7E168204600258847C4F81CA06D
:103EE00006460027C4F818A02A2E09D0304600F054
:103EF0001FF938B304EB8708303EC8F8186019E0A2
:103F000059F8041B204604EB87029161E168884759
:103F1000012F064618D1E069002820DA25F0200597
:103F20001DE0D8F8180000EB800006EB40003038A8
:103F3000C8F818002046E1688847064600F0F8F8FF
:103F40000028EED1012F0AD02E2E08D12046E1689C
:103F500088477F1C0646022F45F02005C4DBA06978
:103F6000002803DA404245F00105A061E80701D0CE
:103F700025F01005B6B1A6F14100192802D8203667
:103F800045F400654A463146204625604D46FCF71B
:103F900007F958B1012806D0ED1D25F0070000F102
:103FA000080989E704E005F1040985E730468AE756
:103FB000206ABDE8F08770477047704770472DE969
:103FC000F0470D4699469246044600F124080168E0
:103FD000880604D5E06921F01001216000E001208D
:103FE000A84201DD471B00E00027A1697A1902EB16
:103FF0000900081AA0612078C00602D42046FFF705
:10400000EFFE002608E0D4E901211AF806009047E7
:10401000206A401C761C20624E45F4DB2078C006E6
:104020000AD52046FFF7DCFE06E0D4E90121302066
:104030009047206A401C2062381EA7F10107F4DC7B
:1040400007E0D4E9012118F805009047206A401CD8
:104050002062281EA5F10105F3DC2046FFF7D6FEFD
:104060002078000602D50220BDE8F0870120FBE79A
:10407000074B70B50D467B4400F011F80446284606
:1040800000F020F810B14FF0FF3070BD204670BD39
:104090003DCFFFFF01694A1C02610878704700B5F7
:1040A0008FB0CDE901310021059105497944CDE971
:1040B000031011466846FFF7F7FE0FB000BD000081
:1040C000E5FFFFFF007B00F080007047754600F0C1
:1040D0002BF8AE4605006946534620F0070085469A
:1040E00018B020B5FDF712F8BDE820404FF00006EB
:1040F0004FF000074FF000084FF0000B21F00701D0
:10410000AC46ACE8C009ACE8C009ACE8C009ACE812
:10411000C0098D46704710B50446AFF300802046B5
:10412000BDE81040FCF74EB800487047340200204C
:1041300030380A2801D20120704700207047000063
:1041400010B591EA030F48BF83F0004300F19A8253
:10415000841A71EB030C05D2121943EB0C03001BFC
:1041600061EB0C01DFF824E14FEA1154A4EB135C7E
:104170001EEA430F18BF9EEA445F73D023EA0E0382
:10418000DCF1200E21EA045143F4801332D322FAE9
:104190000CFE10EB0E0023FA0CFE41EB0E01CCF1ED
:1041A000200E03FA0EFE10EB0E0051F10001B1F5E6
:1041B000801FCCF1200E32D201EB045112FA0EF224
:1041C000BDE8104058BF7047401C38BF5FEA42024C
:1041D00018BF7047002814BF20F0010041F1000112
:1041E0004FEA410313F5001F38BF7047A1F1C041EA
:1041F00000F03ABA012A43EB0302ACF1200CDCF1E7
:104200001F0E32BF4FF0000E23FA0CF310EB030029
:1042100041EB0451B4EB115FD0D0A1EB045101F597
:10422000801149085FEA300001EB04510ED350F1D0
:10423000000038BF12FA0EFE08D1BDE81040C9E7F1
:10424000401C38BF5FEA4202CAD1C3E7BDE8104054
:104250004FEA410313F5001F38BF7047A1F1C04179
:1042600000F002BA9EEA445F08D011EA5E0FBDE892
:10427000104004BF01F0004100207047BDE810402D
:1042800070B500F0A3F900BF64FBBE3E0000E0FF84
:104290002DE9C04130B4DFF8A0C23CEA111418BFC8
:1042A0003CEA131400F0EC8081EA03051CEA1114C7
:1042B00044EAD57418BF1CEA131500F0C780A4EBBC
:1042C00005044FF0004545EAC12145EAC32341EA10
:1042D000505143EA525304F17F74994204F500347B
:1042E0004FEAC0204FEAC22208BF904200F09C80F3
:1042F0004FEA13650FF24016765D4FEA134506FB51
:1043000005F7C7F1807706FB07F74FEAD737A7FB1A
:1043100003687642C8F58038A7FB06CE38BFA8F1FF
:10432000010807FB08E64FF0000EA6FB028CE6FB37
:1043300003CEDCF1000CCEF1004E38BFAEF1010E21
:10434000A6FB0C584FF000074FF00005E6FB0E8768
:10435000A1FB08C6A0FB07CE16EB0E0645F1000533
:10436000E1FB076515F1E04E7EBFA4F580345FEAFE
:1043700046066D4116F1800745F100054FEA172703
:104380004FEA066647EA0567A6F1DE46B6F1805FAA
:104390004FEA15251FD9384624F0010C05EBC471EE
:1043A000BCF1FE6F01EB0C1102D8F0BCBDE800813E
:1043B00024425CBF01F5801E9EEAC47F02D4F0BC9B
:1043C000BDE80081244238D4F0BCA1F1C041BDE871
:1043D000004100F049B94FEAD22242EA43524FEA83
:1043E000D323A7FB02864FEAD02040EA415007FBC7
:1043F00003661EEA0E0F4FEAD12105FB026658BF85
:10440000A6EB0056B6EB00564FEA520E4EEAC37EBC
:1044100018EB0E0E56EB530EBDD518EB02085E419D
:104420007F1C55F10005B6E74FF480154FF00007EB
:104430004FF000064FF00008ADE7F0BC4FF0000071
:1044400001F1C04101F00041BDE8008111EA0C1FFB
:104450000CEA131500D00CE013EA0C1F00F02580C5
:104460004FF00000F0BC81EA030101F00041BDE81B
:104470000081F0BCBDE8004181EA030100F0F4B81E
:10448000F0BCBDE8004170B500F0A0F8097EFC3E2C
:1044900000F007B881EA03014FF0000001F000418D
:1044A000704781EA030100F0DFB8F0BCBDE80041CD
:1044B0004FF0000021497047FFFDFBF9F7F5F4F2DA
:1044C000F0EEEDEBE9E8E6E4E3E1E0DEDDDBDAD8AF
:1044D000D7D5D4D3D1D0CFCDCCCBCAC8C7C6C5C40D
:1044E000C2C1C0BFBEBDBCBBBAB9B8B7B6B5B4B324
:1044F000B2B1B0AFAEADACABAAA9A8A8A7A6A5A40F
:10450000A3A3A2A1A09F9F9E9D9C9C9B9A999998D2
:104510009797969595949393929191908F8F8E8E75
:104520008D8C8C8B8B8A8989888887878685858402
:1045300084838382828181800000FF070000F87FEE
:104540004FEA41034FEA5353A3F58063D3F11E03AF
:10455000C8BFD3F1210C0CDD4FF0004242EAC1226A
:1045600042EA505232FA03FC8CEAE17CACEBE17097
:104570007047102BC4BF0020704703F5787CBCF156
:10458000FF3F04D06FF0004282EA2100704770B50F
:1045900000F01CF84992248000207047F2E710F0E8
:1045A000004248BF4042B0FA80F310FA03F10AD04B
:1045B000C3F11D0303F580634FEA415002EB035240
:1045C00002EBD12170474FF0000070470EF1020E50
:1045D0002EF0030E5EF8046B364205D4012A43EB3D
:1045E000030515F5001F12D8012841EB010C1CF53D
:1045F000001F0CD80ED14FEAD17C15F5001F0CEB33
:104600004C0C0CF1020C08BF4CEBD37C04E04FF0D7
:10461000080C01E04FEAD37C0CEB4C0526FA05F6BA
:1046200006F00706B6F1040C06D20EEB860CBDE8C8
:1046300070404CF0010C6047DFE80CF0090B0202FF
:104640004FF000414FF00000A1F5002170BD194668
:104650001046012851EB010418BFD4F5001484BFA3
:10466000002001F0004170BD0808A0F500114FEADC
:104670003101704710B591EA030F48BF83F0004342
:104680003FF566AD841A71EB030C07D212198CF05A
:10469000004C43EB0C03001B61EB0C01DFF8A4E1C1
:1046A0004FEA1154A4EB135C1EEA430F18BF9EEAB5
:1046B000445F00F0B08023EA6E03524221EA0451C5
:1046C000C3EB6E0338BF5B1EDCF1200E25D322FA4C
:1046D0000CFE10EB0E0043FA0CFE41EB0E01CCF188
:1046E000200E03FA0EFE10EB0E0051F10001CCF18A
:1046F000200E29D412FA0EF201EB0451BDE810404D
:1047000058BF7047401C1CBFB2F1004F70470028D3
:104710000CBF491C20F00100704712EB020E43EB66
:10472000030218BF4FF0010E4EEA4202ACF1200C1A
:10473000DCF11E0E54D943FA0CFE10EB0E0051F1C1
:10474000FF31CCF11E0ED5D50EF1010E12FA0EFE80
:10475000404141EB010101EB445C5FEA5C5C10D934
:1047600010EBDE7001EB045138BFBEF1004FBDE825
:10477000104018BF704700280CBF491C20F00100F2
:10478000704730D24FEAD42C11F5001124F40064A4
:104790001BD0B1FA81F20B3AA41AA41ED2F1200365
:1047A000914030FA03F31943904001EBCC71002C97
:1047B00001EB0451BDE81040A8BF704701F1C041B2
:1047C0004FF0000001F000417047B0FA80F310FA9A
:1047D00003F100D110BDE41A173C4805C90AE4E70B
:1047E00001EB045110BD491001EB0451BDE810402C
:1047F0004FEA300002E04FF0000170474A0008BF66
:104800000042F8D0B2F5001F28BF704701F0004108
:104810004FF0000070479EEA445F07D011EA5E0F38
:10482000BDE8104004BF002100207047BDE81040E3
:1048300070B5FFF7CBFE00BF40DFF63E83F00041CE
:10484000104670470000E0FF34431010013443105D
:104850001001120100020000004083041057000202
:104860000102030109022200010100E032090400F3
:10487000000103010200092100010001224A000792
:1048800005810304002005010902A1010901A1001D
:1048900005091901290315002501950375018102F8
:1048A0009501750581010501093009310938158126
:1048B000257F750895038106C0093C05FF09011590
:1048C00000250175019502B12275069501B101C05F
:1048D000040309041A037F5EDE5D1F66FC7F3575E5
:1048E000505BD1796280096750966C51F85322036E
:1048F00041004C00490045004E00540045004B006B
:104900002000E689A763550053004200209F0768F6
:104910003049000800000020500100002801000874
:10492000C049000850010020480700008401000829
:104930001184A24A04000A110102030406070809AF
:1049400001291A691E051E02040608141A035312CF
:1049500054124D123312321231021130132D2C0A1F
:10496000320804411A029D13553A1B08870413317B
:104970003B1B0833041A65041AE50413413C1B0869
:1049800005041A13041A2104415A40701A1B200905
:1049900016581A291C1352483308121A6408322276
:1049A0001A8608324A1A760832091AD00832041ACE
:1049B000D408321A5AEE2822542A201041199B1189
:04000005080000ED02
:00000001FF
