:020000040800F2
:10000000980800207D1000080D0400080F04000867
:1000100013040008170400081B0400080000000077
:100020000000000000000000000000001F040008A5
:100030002104000800000000230400082504000833
:1000400097100008971000089710000897100008F4
:1000500097100008971000089710000897100008E4
:1000600097100008971000089710000897100008D4
:1000700097100008971000089710000897100008C4
:1000800097100008971000089710000897100008B4
:10009000290400089710000897100008971000081E
:1000A0009710000897100008971000089710000894
:1000B0009710000897100008971000089710000884
:1000C0009710000897100008971000089710000874
:1000D00097100008F10F000897100008971000080B
:1000E00097100008971000083104000897100008C6
:1000F0009710000897100008971000089710000844
:100100009710000897100008971000089710000833
:100110009710000897100008971000089710000823
:100120009710000897100008971000089710000813
:1001300000F002F800F05FF80AA090E8000C82449A
:100140008344AAF10107DA4501D100F054F8AFF277
:10015000090EBAE80F0013F0010F18BFFB1A43F0A5
:100160000103184784460000A44600000A444FF0EB
:10017000000C10F8013B13F0070408BF10F8014B06
:100180001D1108BF10F8015B641E05D010F8016B4B
:10019000641E01F8016BF9D113F0080F1EBF10F8AF
:1001A000014BAD1C0C1B09D16D1E58BF01F801CBD2
:1001B000FAD505E014F8016B01F8016B6D1EF9D555
:1001C0009142D6D37047000000230024002500266A
:1001D000103A28BF78C1FBD8520728BF30C148BFAA
:1001E0000B607047642903F08D85002070471FB5B0
:1001F0001FBD10B510BD03F0D7FE1146FFF7F7FF86
:1002000000F034F803F0F5FE03B4FFF7F2FF03BC8F
:1002100000F094FE02468A4201D9501A7047881AAB
:10022000FCE710B504460121042001F0C7FA3CB1F7
:100230004248006880B220F002004049086014E0A3
:100240003E48006880B240F002003C4908603C48EB
:10025000006820F47F203A4908600846006840F4AE
:100260004C30086000203749086010BD1CB500F014
:10027000F7FD00F05DFE4FF4165000F06DFE32A069
:1002800003F00AFD00F0BEF934A003F005FD642080
:1002900000F022FE00F015FB34A003F0FDFC64200A
:1002A00000F01AFE00F0B0FB35A003F0F5FC05E00D
:1002B00038A003F0F1FCC82000F00EFE00F047FC6F
:1002C0000028F5D137A003F0E7FC00F0D7FC3AA0F6
:1002D00003F0E2FC0020FFF7A4FF4FF4967000F05B
:1002E000FBFD0120FFF79DFF03F02CFA03F012FA4B
:1002F00002F048FC37A003F0CFFC1DE0684600F098
:10030000A0FCC8B99DF802009DF8011040EA012048
:1003100004B29DF804009DF8031040EA012005B2E4
:100320002A46214636A003F0B7FCEAB2E1B29DF8B6
:100330000000002303F034FAE0E70000405C0040D6
:1003400004080140B0012142B4AEBFDAB3F5CABC23
:10035000BBAFCDEAB1CF0D0A00000000494943B35D
:10036000F5CABCBBAFCDEAB1CF0D0A004D50553632
:10037000303530B3F5CABCBBAFCDEAB1CF0D0A0002
:1003800032346C3031B3F5CABCBBAFCDEAB1CF0D5E
:100390000A000000CEB4BCECB2E2B5BD32346C3021
:1003A000310D0A00BCECB2E2B5BD32346C30312DF7
:1003B0002D2D4F4B0D0A0000C9E8D6C332346C30E6
:1003C00031CEAABDD3CAD5C4A3CABDB3C9B9A6A3E9
:1003D000A10D0A00555342B6BCB3F5CABCBBAFCDA4
:1003E000EAB1CFC1CBA3ACC9A7C4EAA3ACBFAACA28
:1003F000BCBDD3CAD5B0C9A3A1A3A1A3A10D0A00B6
:10040000202538642538640D0A000000704700BFBD
:10041000FEE700BFFEE700BFFEE700BFFEE7704754
:10042000704770477047704710B503F0FFF910BD73
:1004300010B54FF4802001F0B2FC10BD0021002067
:10044000674A126842F48032654B1A6000BF644A02
:10045000126802F40030491C10B9B1F5A06FF6D152
:100460005F4A126812F4003F01D0012000E0002032
:10047000012842D15B4A126842F01002594B1A60BF
:100480001A46126822F003021A601A46126842F0F5
:1004900002021A60524A5268514B5A601A46526818
:1004A0005A601A46526842F480625A601A4652688C
:1004B00022F47C125A601A46526842F4E8125A60DA
:1004C0001A46126842F080721A6000BF444A1268ED
:1004D00012F0007FFAD0424A526822F00302404BE9
:1004E0005A601A46526842F002025A6000BF3C4A03
:1004F000526802F00C02082AF9D1704710B5FFF7D4
:100500009DFF10BD10B53648006840F00100344929
:100510000860084640683449084031494860084648
:100520000068324908402E4908600846006820F4F7
:10053000802008600846406820F4FE0048604FF4C0
:100540001F008860FFF7DAFF4FF00060284908605D
:1005500010BD10B5002100200022214B5B6803F084
:100560000C0121B1042906D0082928D107E0214B2C
:10057000214C236027E01F4B1F4C236023E0184BC6
:100580005B6803F47010164B5B6803F4803202233F
:1005900003EB904022B9194B4343174C23600DE005
:1005A0000F4B5B6813F4003F04D0144B4343124CD1
:1005B000236003E00F4B43430F4C236003E00D4BDC
:1005C0000D4C236000BF00BF054B5B68C3F30313F2
:1005D0000B4CE15C084B1B68CB40074C236010BD03
:1005E00000100240002002400000FFF8FFFFF6FE6E
:1005F00008ED00E000127A000000002000093D0034
:100600000400002008B5C020ADF8000003208DF8DC
:10061000020010208DF803006946874800F01CFE98
:100620004021854800F0C3FE8021834800F0BFFED2
:1006300008BD08B58020ADF8000003208DF8020049
:1006400010208DF8030069467B4800F005FE08BDC8
:1006500008B58020ADF8000048208DF803006946F9
:10066000754800F0F9FD08BD10B5FFF7E2FF8021E5
:10067000714800F09CFE40216F4800F098FE052074
:1006800000F007FC80216C4800F093FE062000F08B
:1006900000FC4021684800F08CFE10BD10B5FFF74B
:1006A000C8FF4021644800F084FE8021624800F0C9
:1006B00080FE4021604800F07AFE062000F0E9FB51
:1006C00080215D4800F073FE062000F0E2FB10BDC3
:1006D00010B54021584800F06CFEFFF7AAFF8021BA
:1006E000554800F066FE022000F0D3FB402152483E
:1006F00000F05DFE052000F0CCFB40214E4800F0EC
:1007000058FE10BD10B540214B4800F052FEFFF7D7
:1007100090FF8021484800F04AFE022000F0B9FB1B
:100720004021454800F043FE052000F0B2FB402187
:10073000414800F03EFE10BD10B50024FFF788FFD1
:1007400080213D4800F033FE012000F0A2FB402153
:10075000394800F02CFE012000F09BFB07E0601CF4
:10076000C4B2FA2C03DDFFF799FF012010BD8021F0
:10077000314800F002FE0028F1D140212E4800F05F
:1007800018FE0020F2E770B504460025FFF751FF80
:100790004021294800F00DFE00BF1EE004F080005B
:1007A000002804DD8021244800F001FE03E08021C0
:1007B000214800F0FEFD6006040E40211E4800F0B6
:1007C000F6FD022000F065FB40211B4800F0F1FD22
:1007D000022000F05EFB681CC5B2082DDEDB70BD98
:1007E00070B5054600260024FFF732FF00BF18E071
:1007F0004021114800F0DDFD022000F04AFB4021BD
:100800000D4800F0D4FD6006040E80210A4800F077
:10081000B4FD08B1601CC4B2012000F03AFB701CAA
:10082000C6B2082EE4DB15B9FFF76CFF01E0FFF755
:100830004FFF204670BD0000000C014070B505461A
:100840000C46FFF711FFD020FFF79DFFFFF774FF65
:100850002846FFF798FFFFF76FFF2046FFF793FF4B
:10086000FFF76AFFFFF71AFF70BD2DE9F041074659
:100870000C461546FFF7F8FED020FFF784FFFFF780
:100880005BFF3846FFF77FFFFFF756FFFFF7ECFEF1
:10089000D120FFF778FFFFF74FFF002606E0012089
:1008A000FFF79EFF2070641C701CC6B2681EB04229
:1008B000F5DC0020FFF794FF2070FFF7EFFEBDE8A6
:1008C000F08110B500216B20FFF7B8FF0721192038
:1008D000FFF7B4FF06211A20FFF7B0FF01211C200B
:1008E000FFF7ACFF18211B20FFF7A8FF10BD08B5CC
:1008F00000200090012269467520FFF7B6FF9DF8A1
:1009000000103DA003F0C8F908BD1CB5044606223E
:1009100069463B20FFF7A9FF9DF801009DF80010F4
:1009200040EA012000B220809DF803009DF80210EB
:1009300040EA012000B260809DF805009DF8041097
:1009400040EA012000B2A0801CBD1CB5044606226E
:1009500069464320FFF789FF9DF801009DF80010CC
:1009600040EA012000B220809DF803009DF80210AB
:1009700040EA012000B260809DF805009DF8041057
:1009800040EA012000B2A0801CBD38B50446022216
:1009900069464120FFF769FF9DF801009DF80010AE
:1009A00040EA012000B2208038BD2DE9F84F824690
:1009B000022269464120FFF758FF9DF801009DF88B
:1009C000001040EA01200FFA80FB43F290305844B7
:1009D00003F051FD80460022094B03F0C5FB06469B
:1009E0000022084B03F0B2FD044603F015FD00B2EF
:1009F000AAF80000BDE8F88F25640D0A0000000089
:100A00000080714000002A4000B587B001212C20F1
:100A100000F0D4FE4FF48050ADF8180010208DF88F
:100A20001B0003208DF81A0006A9BF4800F014FC33
:100A30004FF48051BC4800F0BAFC0420ADF8180017
:100A400010208DF81B000421B84800F0B0FC0620EF
:100A5000ADF8180006A9B64800F0FEFB0820ADF876
:100A6000180028208DF81B0006A9B14800F0F4FBFF
:100A70000E21AF4800F09DFC00F095F90021AD4833
:100A800001F061FA0020ADF804004FF48270ADF877
:100A900006000020ADF80800ADF80A00ADF80C0023
:100AA0004FF40070ADF80E001820ADF810000020D3
:100AB000ADF812000720ADF8140001A99D4801F01F
:100AC0009DF901219B4801F03EFA00209A490860F7
:100AD0004FF001009949C1F8880107B000BD2DE928
:100AE000F04107460D4616460020954908603846F5
:100AF00000F032F98046002405E0FF2000F02CF9D8
:100B00002855601CC4B2B442F7DB01208C49086050
:100B10004046BDE8F0812DE9F04107460C461546F8
:100B2000002087490860384600F016F98046002604
:100B300005E014F8010B00F00FF9701CC6B2AE42CC
:100B4000F7DB01207E4908604046BDE8F0811CB516
:100B50007CA103C9CDE90001082000F06AF9052253
:100B600069463020FFF7D7FF052269461020FFF7BE
:100B7000B6FF002406E01DF80400A52800D003E01D
:100B8000601CC4B2052CF6DB00BF052C01D001208F
:100B90001CBD0020FCE770B505460C4600206849E6
:100BA0000860284600F0D8F80646204600F0D4F841
:100BB00001206249C1F88801304670BD70B5044615
:100BC00000205F490860204600F0C6F8FF2000F0D2
:100BD000C3F8054601205949C1F88801284670BD6F
:100BE00070B50546102000F024F900205249086035
:100BF0004FF0200229464FF0A000FFF78CFF0120A4
:100C00004E49C1F8840100BF504800680028FBD15C
:100C10004FF00700FFF7D2FF044621462720FFF7D9
:100C2000BAFF14F0100F05D0FF21E120FFF7B3FF4A
:100C3000102070BD14F0200F01D02020F9E7FF2014
:100C4000F7E770B50446102000F0F3F80720FFF72F
:100C5000B5FF054629462720FFF79DFF15F0400FF9
:100C60000AD0202221466120FFF739FFFF21E22030
:100C7000FFF791FF002070BD0120FCE710B50020B8
:100C80002D4908604FF0050231494FF02A00FFF767
:100C900042FF01212120FFF77EFF01212220FFF7E3
:100CA0007AFF28212520FFF776FF20213120FFF74A
:100CB00072FF0F212620FFF76EFF0F212020FFF784
:100CC0006AFF01201D49C1F8840110BD10B5002044
:100CD000194908604FF005021E494FF03000FFF738
:100CE0001AFF05221A492A20FFF715FF01212120AA
:100CF000FFF751FF01212220FFF74DFF1A21242089
:100D0000FFF749FF28212520FFF745FF0F21262067
:100D1000FFF741FF0E212020FFF73DFF012007498B
:100D2000C1F8840110BD0000000C01400014014016
:100D300000080140003800408401214200002142A7
:100D400088012142A5A5A5A5A50000000C0121420E
:100D5000254700082047000870B50546002405E037
:100D6000601CC4B2C82C01DD002070BD02213A48CD
:100D700001F06DF90028F3D02946374801F014F945
:100D8000002405E0601CC4B2C82C01DD0020ECE7A3
:100D90000121314801F05BF90028F3D02E4801F021
:100DA00005F9C0B2E1E700B587B00121082000F0E5
:100DB00005FD0121880300F00EFD4FF46040ADF801
:100DC000180018208DF81B0003208DF81A0006A9C2
:100DD000224800F041FA4FF46041204800F0E7FA61
:100DE0000020ADF804004FF48270ADF8060000203A
:100DF000ADF808000220ADF80A000120ADF80C00A3
:100E00004002ADF80E001820ADF810000020ADF83B
:100E100012000720ADF8140001A90F4800F0EEFF02
:100E200001210D4801F08FF8FF20FFF795FF07B073
:100E300000BD10B50446084800884FF6C771084049
:100E4000054908800846008820430880012102489F
:100E500001F079F810BD000000380040000C01409E
:100E600010B56FF0040000F079F92D4800682D49A5
:100E7000B0FBF1F02C4908700846007800EB400107
:100E8000C1EBC0104FF6FF7101EAC000274908808E
:100E900010BD0146244A12784A434FF0E0235A61BC
:100EA00000229A611A46126942F001021A6100BFDB
:100EB0004FF0E022106910F0010F02D010F4803FD3
:100EC000F6D04FF0E022126922F001024FF0E02349
:100ED0001A6100229A6170470146144A12884A43F7
:100EE0004FF0E0235A6100229A611A46126942F0DB
:100EF00001021A6100BF4FF0E022106910F0010FEB
:100F000002D010F4803FF6D04FF0E022126922F0B8
:100F100001024FF0E0231A6100229A61704700003D
:100F20000000002000127A001400002016000020AB
:100F300010B54FF4A06000F0C1F810BD014600BF2D
:100F4000704700BF494A128812F0400FFAD0C2B26F
:100F5000464B1B1D1A80704710B586B00446012110
:100F600044F2040000F02AFC4FF40070ADF81400C5
:100F700003208DF8160018208DF8170005A93C48AD
:100F800000F06AF94FF48060ADF8140004208DF889
:100F9000170005A9364800F05FF925208DF80000FC
:100FA00003208DF801008DF8020001208DF8030068
:100FB000684600F088F801940020ADF80800ADF80C
:100FC0000A00ADF80C00ADF810000C20ADF80E00D2
:100FD00001A9264800F09DFC012240F2255123483A
:100FE00000F02FFD0121214800F01FFD06B010BDCB
:100FF00010B540F225511D4800F008FE10B31B4803
:1010000000F084FDC4B21B48008810F4004F2BD1BF
:101010001848008810F4804F0CD00A2C03D0002010
:101020001449088020E01348008840F4004011492A
:10103000088019E00D2C06D10E48008840F480404D
:101040000C49088010E00B480088C0F30D000A49E5
:101050000C5408480088401C06490880084600884F
:10106000C72801DD0020088010BD000000380140C5
:101070000008014018000020500100200948804766
:1010800009480047FEE7FEE7FEE7FEE7FEE7FEE76A
:10109000FEE7FEE7FEE7FEE704480549054A064B82
:1010A0007047000005050008310100089802002083
:1010B000980800209804002098040020314901433A
:1010C000314A1160704770B5002100230F22C478A7
:1010D0000CB32D4C246804F4E064C4F5E064210AE8
:1010E000C1F10403CA40447804FA03F1847814403F
:1010F00021430901254C0678A155047804F01F0509
:101100000124AC4005786D114FF0E02606EB850513
:10111000C5F8004109E0047804F01F050124AC4043
:101120001B4D0678761145F8264070BD194A0A40D5
:101130000243154B1B1F1A60704739B1124A121D2A
:1011400012680243104B1B1D1A6006E00E4A121D66
:10115000126882430C4B1B1D1A607047042808D18B
:101160004FF0E021096941F004014FF0E0221161E4
:1011700007E04FF0E021096921F004014FF0E0227F
:10118000116170470000FA050CED00E000E400E09A
:1011900080E100E080FFFF1F10B50446CA4884428A
:1011A00008D10121042000F023FB0021042000F0DD
:1011B0001FFB46E0C548844208D10121082000F009
:1011C00017FB0021082000F013FB3AE0C0488442DE
:1011D00008D10121102000F00BFB0021102000F0AD
:1011E00007FB2EE0BB48844208D10121202000F0FB
:1011F000FFFA0021202000F0FBFA22E0B6488442EA
:1012000008D10121402000F0F3FA0021402000F035
:10121000EFFA16E0B148844208D10121802000F0A5
:10122000E7FA0021802000F0E3FA0AE0AC488442AB
:1012300007D10121801500F0DBFA0021A01500F094
:10124000D7FA10BD10B50121084600F0D1FA0021EF
:10125000012000F0CDFA10BD2DE9F0410246002535
:101260000026002000230024002791F803C00CF082
:101270000F0591F803C01CF0100F03D091F802C0C5
:101280004CEA050591F800C0BCF1000F31D014689C
:1012900000202BE04FF0010C0CFA00F3B1F800C075
:1012A0000CEA03069E4220D183004FF00F0C0CFA8B
:1012B00003F7BC4305FA03FC4CEA040491F803C0AD
:1012C000BCF1280F06D14FF0010C0CFA00FCC2F85B
:1012D00014C00AE091F803C0BCF1480F05D14FF0EB
:1012E000010C0CFA00FCC2F810C0401C0828D1D335
:1012F0001460B1F800C0BCF1FF0F34DD5468002069
:101300002EE000F1080C4FF0010808FA0CF3B1F8D8
:1013100000C00CEA03069E4221D183004FF00F0C5F
:101320000CFA03F7BC4305FA03FC4CEA040491F8F9
:1013300003C0BCF1280F05D100F1080C08FA0CF825
:10134000C2F8148091F803C0BCF1480F07D100F136
:10135000080C4FF0010808FA0CF8C2F81080401C85
:101360000828CED35460BDE8F0814FF6FF710180AC
:10137000022181700421C1707047024600209368E9
:101380000B4201D0012000E0002070470146886830
:1013900080B2704702460020D3680B4201D0012082
:1013A00000E0002070470146C86880B270470161C4
:1013B0007047416170470AB1016100E041617047C7
:1013C000C16070474FF480320A438261816182615B
:1013D00082698269704702460020424B18684FF6C6
:1013E0008073184040EA021008433E4B1860704773
:1013F0003D49C8617047F0B50A460023002400212A
:10140000002500F00046B6F1004F02D1354EF169DB
:1014100001E0344E7168C0F3034583B200F4401616
:10142000B6F5401F08D121F070612E4E766826F087
:1014300070662C4F7E6012E000F48016B6F5801FB7
:1014400006D1032606FA05F4A14341F0706106E0D7
:10145000460D360103FA06F6B14341F0706122B140
:10146000460D360103FA06F6314300F00046B6F1A8
:10147000004F02D11B4EF16101E01A4E7160F0BDC8
:1014800030B500228B071C0F0F2303FA04F2154B13
:1014900008338C1053F824309343124C08348D10C9
:1014A00044F8253023468C1053F824308C07240F41
:1014B00000FA04F423430B4C08348D1044F8253013
:1014C00030BD0A490860704700080140000C014027
:1014D000001001400014014000180140001C0140B0
:1014E000002001400000014000002042DC002042BA
:1014F000DB48006840F00100D949086008464068B0
:10150000D8490840D649486008460068D64908408E
:10151000D34908600846006820F480200860084627
:10152000406820F4FE0048604FF41F008860704758
:10153000CB49096821F48031C94A11601146096814
:1015400021F480211160B0F5803F03D0B0F5802FE9
:101550000ED106E0C249096841F48031C04A1160E9
:1015600007E0BF49096841F4A021BD4A116000E0CD
:1015700000BF00BF704710B50146002200230020C5
:101580004A11012A02D1B64C236806E0022A02D190
:10159000B34C236A01E0B24C636A01F01F020124DC
:1015A00094401C4201D0012000E0002010BD70B525
:1015B00000240025002600BF3120FFF7DCFF06468F
:1015C000641CB4F5A06F01D0002EF5D03120FFF7D8
:1015D000D2FF08B1012500E00025284670BD014674
:1015E00000209F4A106820F0F80040EAC100106017
:1015F00070479E490860704702460020984B586823
:1016000020F47C1042EA01031843954B5860704760
:1016100096490866704701460020914A506820F0BC
:1016200003000843506070478D48406800F00C008C
:101630007047014600208A4A506820F0F0000843B5
:101640005060704701460020854A506820F4E060F1
:1016500008435060704701460020814A506820F4DA
:10166000605040EAC1005060704729B17C4A527A0C
:1016700002437B4B5A7204E0794A527A8243784B98
:101680005A7270477A490860704701460020744AD0
:10169000506820F440400843506070470021754A6C
:1016A00011706F4A82F82010012802D0042808D156
:1016B00003E001216F4A117004E005216D4A1170A9
:1016C00000E000BF00BF70476B4908607047644985
:1016D000096A0143624A11627047674944390860E8
:1016E000704730B500210022002400235C4D6D6856
:1016F00005F00C0121B1042905D0082923D105E00A
:101700005E4D056022E05D4D05601FE0544D6D6843
:1017100005F47012524D6D6805F48034022505EB16
:1017200092421CB9564D554305600BE04C4D6D6817
:1017300015F4003F03D0524D5543056002E04F4D74
:101740005543056002E04D4D056000BF00BF444DAC
:101750006D6805F0F00109094A4D6B5C0568DD40D4
:1017600045603F4D6D6805F4E061090A454D6B5CCD
:101770004568DD4085603A4D6D6805F46051C90AE1
:10178000404D6B5C4568DD40C560354D6D6805F4C6
:101790004041890B3C4D6B5CC568B5FBF3F50561B9
:1017A00030BD29B12E4A526902432D4B5A6104E0E3
:1017B0002B4A526982432A4B5A61704729B1284A01
:1017C00092690243264B9A6104E0254A926982435A
:1017D000234B9A61704729B1214AD2690243204BB9
:1017E000DA6104E01E4AD26982431D4BDA61704718
:1017F00029B11B4AD2680243194BDA6004E0184A47
:10180000D2688243164BDA60704729B1144A1269D4
:101810000243134B1A6104E0114A12698243104BD0
:101820001A61704714494039086070470F49C8640D
:1018300070470B49C87170470948406A40F0807092
:1018400007494862704701460020054A92680A42EB
:1018500001D0012000E000207047014988727047E4
:10186000001002400000FFF8FFFFF6FE00004242B9
:10187000D8004242201002408004424200127A0006
:1018800000093D00200000203000002010B5044673
:10189000FB48844209D101218803FFF7A9FF0021F9
:1018A0004FF48040FFF7A4FF32E0F648844209D1AC
:1018B00001214804FFF7A9FF00214FF40030FFF792
:1018C000A4FF25E0F048844209D101218804FFF7F4
:1018D0009CFF00214FF48020FFF797FF18E0EB48B2
:1018E000844209D10121C804FFF78FFF00214FF482
:1018F0000020FFF78AFF0BE0E548844208D1012170
:101900000805FFF782FF00214FF48010FFF77DFFED
:1019100010BD2DE9F04786B005460E460024A246CC
:1019200000BFA1460027B08900B100BF2F462C8A16
:101930004CF6FF700440F08804432C82AC894EF6CC
:10194000F3100440B0883189084371890843044387
:10195000AC81AC8A4FF6FF400440B0890443AC82AE
:1019600001A8FFF7BEFEC648874202D1DDF810A0ED
:1019700001E0DDF80CA0A88910F4004F08D00AEBB4
:10198000CA0000EB0A1031684900B0FBF1F807E02B
:101990000AEBCA0000EB0A1031688900B0FBF1F8CD
:1019A0006420B8FBF0F004012009642101FB1089D8
:1019B000A88910F4004F08D0322000EBC900B0FB1A
:1019C000F1F000F00700044308E0322000EB0910BA
:1019D0006421B0FBF1F000F00F0004432C8106B04D
:1019E000BDE8F0874FF41651016000218180C1806D
:1019F00001810C21418100218181704710B502468F
:101A00000020108A4FF2FF0318400B884C882343B4
:101A10008C882343CC8823431843108210BD0021B7
:101A2000018041808180C180704721B1828942F468
:101A30000052828104E082894DF6FF731A40828150
:101A40007047F0B503460024002600250020A1F5CC
:101A500010676A3F00D100BF1846C1F3421401F07D
:101A60001F06012707FA06F5012C01D10C3004E00E
:101A7000022C01D1103000E014301AB107682F4356
:101A8000076002E00768AF430760F0BD1AB1838AC0
:101A90000B43838202E0838A8B4383827047028AEE
:101AA0004FF6F0731A400282028A0A43028270479C
:101AB00082894FF2FF731A40828182890A438281B0
:101AC000704721B1828942F00202828104E082895A
:101AD0004FF6FD731A4082817047028A4FF6DF731A
:101AE0001A400282028A0A430282704721B1028AA6
:101AF00042F48042028204E0028A4BF6FF731A40ED
:101B000002827047C1F308028280704701468888CC
:101B1000C0F308007047818941F00101818170475D
:101B2000028BD2B20283028B42EA01220283704707
:101B3000028B02F47F420283028B0A4302837047C6
:101B400021B1828A42F02002828204E0828A4FF62A
:101B5000DF731A408282704721B1828A42F01002FC
:101B6000828204E0828A4FF6EF731A4082827047C5
:101B700021B1828A42F00802828204E0828A4FF612
:101B8000F7731A408282704721B1828942F4004281
:101B9000828103E08289C2F30E028281704721B103
:101BA000828A42F40062828204E0828A4FF2FF73EA
:101BB0001A4082827047828A4FF6FB731A408282F3
:101BC000828A0A438282704721B1828A42F00202ED
:101BD000828204E0828A4FF6FD731A408282704747
:101BE00002460020B1F5007F00D100BF13880B42F0
:101BF00001D0012000E00020704701F40072B2F52E
:101C0000007F00D100BFCA430280704770B5024612
:101C10000024002300250020A1F510666A3E00D1B3
:101C200000BFC1F3421501F01F03012606FA03F3BA
:101C3000012D02D19689334006E0022D02D1168A89
:101C4000334001E0968A33400C12012606FA04F470
:101C50001688344013B10CB1012000E0002070BDA3
:101C600010B500220023A1F510646A3C00D100BF2A
:101C70000A1201249440A3B2DC43048010BD00008A
:101C8000003801400044004000480040004C004043
:101C900000500040002044490860091D0860091DEB
:101CA0000860091D086041483F49143108607047C9
:101CB00000213D498279002A3AD00A461268036819
:101CC0009A430B461A600A1D126803689A430B1D5B
:101CD0001A60027911440A6803681A430A60324A9A
:101CE0000832126803689A432F4B08331A601A1D92
:101CF000126803689A432C4B0C331A604279102AFD
:101D00000ED11A1F126803681A43274B08331A6052
:101D10001A1D126803681A43234B0C331A600DE036
:101D20002149427911440A6803681A430A6005E0B0
:101D3000027911440A6803689A430A6070470021D7
:101D4000016001710C2141710021817170471649B8
:101D5000103109680143144A10321160704701467E
:101D60000020114A143212680A4201D0012000E01A
:101D7000002070470C49143108607047014600206C
:101D80000022094B1B6803EA0102074B14331B684E
:101D90000B4202D00AB1012000E000207047024946
:101DA000143108607047000000040140FFFF0F007D
:101DB00010B50446BE48844208D101218014FFF7C3
:101DC00017FD0021A014FFF713FD16E0B948844267
:101DD00008D101210014FFF718FD00212014FFF79E
:101DE00014FD0AE0B448844207D10121C013FFF773
:101DF0000CFD0021E013FFF708FD10BD10B5002217
:101E0000028802F441520B884C8823438C88234378
:101E1000CC8823430C8923434C8923438C89234357
:101E2000CC8923431A430280838B4FF2FF742340F3
:101E300083830B8A038210BD2DE9F04F85B00546E0
:101E40000C464FF0000902274FF000084FF0010B3D
:101E50000026B246A88B4FF240010840A88302201A
:101E60002884B5F81C90A068022801D100BF38E092
:101E7000A08810B94FF0010B01E04FF0020B8D4824
:101E8000854200D100E000BF6846FFF72AFCDDF87C
:101E900000A0E088B0F5007F0AD14FEA1A2000EBDD
:101EA00080004000A168B0FBF1F0401D86B20BE05D
:101EB0004FEA4B10BAFBF0F000EB80004000A16845
:101EC000B0FBF1F0401D86B20A20B6FBF0F606F03A
:101ED0000108A6EB0800C0F34F074FF6FF7000EAB9
:101EE0000828022F01DBFF2F02DD02274FF0000838
:101EF000E08840EA080038432884A088A189084384
:101F0000618808432188084340F4006040EA0909D9
:101F1000A5F81C9005B0BDE8F08F0021018041803C
:101F20008180C180018141818181C181072101823C
:101F300070470021018041808180C1800221816041
:101F400000218181704721B1028842F04002028065
:101F500004E002884FF6BF731A400280704721B137
:101F6000828B42F48062828304E0828B4FF6FF33DF
:101F70001A408283704730B5002400230C110125DC
:101F8000A540ABB21AB185881D43858002E08588E3
:101F90009D43858030BD1AB183880B43838002E066
:101FA00083888B438380704781817047014688898D
:101FB0007047A1F57E42FF3A04D0028842F4807255
:101FC000028004E002884FF6FF631A4002807047E7
:101FD00021B1828842F00402828004E082884FF6B8
:101FE000FB731A408280704702884FF2FF731A40D9
:101FF000028002880A4302807047018841F48051C0
:102000000180704721B1028842F40052028004E04E
:1020100002884DF6FF731A40028070470246002086
:10202000012901D0108B00E0908A70470146088A90
:102030007047B1F5804F04D1028842F4804202809B
:1020400004E002884BF6FF731A4002807047024694
:10205000002013890B4201D0012000E000207047CE
:10206000CA4302817047F0B50246002000240023D5
:10207000002501F00F070126BE40B4B20B11012666
:102080009E40B3B2968806EA03051689264202D01E
:102090000DB1012000E00020F0BD10B5002201F0DC
:1020A0000F040123A3409AB2D343038110BD000063
:1020B0000030014000380040003C004010B50446AC
:1020C0002CB90120FE4909680882002010BDFD4995
:1020D000096808688047FA4800680A30F6E710B5D2
:1020E000F7480068C078F8494978884213DCF4481A
:1020F0000068807878B9F2480068808858B9F0485C
:102100000068C078EE4909688872EE490968486835
:102110008047002010BD0220FCE710B504462CB912
:102120000120E74909680882002010BDE5490968D7
:1021300088688047E24800680C30F6E710B5E04B4D
:102140001B68D978DE4B1B685879E04B1B689A698D
:1021500090470446DA480068807AE8B13CB9D8482C
:102160000068007918B9D6480068807808B1022064
:1021700010BD8CB9D3490968C8688047D048006849
:102180004079CF490968C872CD480068C078CC4909
:10219000096808730020EBE70220E9E710B5044660
:1021A0002CB90220C64909680882002010BD002011
:1021B000C7490880C2480068007810F07F0F1CD122
:1021C000BF490968487A10F0200F05D0C049097846
:1021D00041F00201BE4A117010F0400F06D0BC4918
:1021E000097801F0FE01BA4A117005E0B849097892
:1021F00041F00101B64A117036E0B148006800783C
:1022000000F07F00012801D1B148CFE7AC48006859
:10221000007800F07F00022824D1A94A1268517981
:1022200001F00F0011F0800F0DD0AA4A52F82020C3
:1022300002F03002102A14D1A54A127842F00102AD
:10224000A34B1A700DE0A34A52F8202002F440522A
:10225000B2F5805F05D19E4A127842F001029C4B94
:102260001A7001E00020A1E79649096808698047D3
:1022700097489BE72DE9F04791480068007800F007
:102280007F08B8F1000F0AD18D480068407A00F04D
:10229000DF008B49096848720020BDE8F087B8F17B
:1022A000020F76D186480068408818B984480068D3
:1022B000007908B10220F0E7DFF80C92804800684E
:1022C000477927F080052C467D480068407910F05A
:1022D000800F05D07F4850F8240000F0300604E05D
:1022E0007C4850F8240000F4405699F80000A842B9
:1022F00004D91EB172480068807A08B90220CCE780
:1023000017F0800F0ED0734850F8240000F0300012
:10231000102837D1E0B200F0D1FFE0B2302100F058
:102320009EFE2FE06B4850F8240000F44050B0F5BA
:10233000805F27D1A4B9684A92F82C10E0B201F06E
:1023400042F8644951F824104BF68F7201EA0200FA
:1023500080F4805080F400505E4941F8240011E080
:10236000E0B200F096FF5B4951F824104BF68F72F3
:1023700001EA020080F4805080F40050554941F891
:10238000240000BF4F49096848698047002084E75E
:10239000FFE700BF022080E72DE9F04148480068D0
:1023A000467926F080073C4645480068407910F0A1
:1023B000800F05D0474850F8240000F0300504E0B5
:1023C000444850F8240000F440553F480078A042AB
:1023D00008D93B480068408820B91DB138480068DA
:1023E000807A10B90220BDE8F08116F0800F0CD081
:1023F000384951F8241048F6BF7201EA020080F013
:102400001000344941F824000CE0324951F82410FE
:102410004BF68F7201EA020080F480502D4941F89A
:10242000240000BF27490968886980470020DAE74F
:1024300010B523480068407A40F020002049096820
:10244000487220490968C8698047002010BD10B54E
:1024500002461B480068438A32B98888C01A184C63
:1024600024682082002010BD08681844FBE72DE98D
:10247000F0411348006800F110042688A068C0B13C
:10248000BEB1A588B54200D93546A8B2A168884733
:1024900007462088401B20806088284460800020F8
:1024A00000F05DFF8046AAB24146384600F078FD54
:1024B00000BF2088D8B14FF44050084908800FE091
:1024C0003C00002048000020AC000020400000201C
:1024D00036000020005C0040B00000204C000020CE
:1024E0000021084600F048FF3020F9490880208884
:1024F000A188884204DB0320F6490968087218E0C5
:102500002088002804DD0520F2490968087210E0DF
:10251000208870B90620EF49096808720021EE484A
:10252000006880B2801CED4A42F810103020E84963
:102530000880BDE8F0812DE9F047E648006800F129
:1025400010052E88E3480068077AD6B9042F18D101
:10255000E348007801280FD10021DF48006880B2ED
:10256000801CDE4A42F810103020D949088000BF94
:102570000020DB49087003E007271020D4490880B9
:1025800027E0AC88A64201D8042000E002200746DC
:10259000B44200D93446A0B2A968884780460020DA
:1025A00000F0D1FE8146A2B24946404600F0DEFC72
:1025B000A1B2002000F0E0FE2888001B2880688877
:1025C000204468803020C24908800002C549088044
:1025D00000BFC04909680F72BDE8F08770B50226D8
:1025E000BC4800684478BB480068007810F07F0F52
:1025F0004AD1092C03D1FFF772FD064665E0052C90
:1026000014D1B4480068C0787F280BDCB14800685A
:10261000807838B9AF480068808818B9AD4800683C
:10262000807A08B108256BE000264EE0032C14D117
:10263000A8480068C07801280DD1A64800688088A5
:1026400048B9A4480068407A10F0200F03D0FFF783
:10265000EFFE064639E0022637E0012C35D19D48D1
:102660000068C07801280DD19A480068808848B970
:1026700098480068407A10F0200F03D0FFF7FAFD69
:10268000064622E0022620E092480068007800F02A
:102690007F00012805D10B2C17D1FFF74FFD06460F
:1026A00013E08C480068007800F07F0002280BD10E
:1026B000012C03D1FFF7DEFD064606E0032C04D112
:1026C000FFF76AFE064600E002264EB1E0B2864AF7
:1026D0001268516988470646032E01D109250FE08B
:1026E0000EB108250CE0062500217B48006880B269
:1026F000801C7A4A42F8101030207549088000BFCB
:10270000744909680D7270BD2DE9F05F7148006869
:1027100045780027BA46062D1AD16E480068007821
:1027200010F07F0F13D16B4909688878012803D115
:102730006D490968CF690AE0022803D16A4909682E
:102740000F6A04E0032802D1674909684F6A97E0DD
:10275000002D65D15F4800684088002860D15D4841
:102760000068C08802285BD15A48006800790028B8
:1027700056D158480068007810F07F0F06D15548B0
:102780000068808810B9AFF2EB5779E051480068D3
:10279000007800F07F00012811D14E49096848797E
:1027A000514909688A6900219047002868D1494841
:1027B0000068807A002863D0AFF21F6760E0454868
:1027C0000068007800F07F00022859D14148006875
:1027D000407900F00F063F480068407900F070092A
:1027E0003C480068407910F0800F06D03A485038D5
:1027F00050F8260000F0300805E03748503850F80F
:10280000260000F4405839480078B04238D9B9F170
:10281000000F35D1B8F1000F32D0AFF27F672FE053
:10282000082D08D12B480068007810F07F0F27D1C1
:10283000AFF2777724E00A2D22D12648006800788D
:1028400000F07F0001281BD122480068807AB8B1CF
:1028500020480068408898B91E480068007978B917
:102860001C480068C08801280AD11A4909684879BB
:102870001D4909688A690021904708B9AFF2657758
:1028800057B114480068A0F812A012480068876188
:102890000020B84700240FE00E4A12685078124A10
:1028A0001268116988470446032C05D1092009499B
:1028B00009680872BDE8F09F06480068008AA0F524
:1028C0007F41FF3914D10920024909680872F1E7F4
:1028D0004E0000203C000020505C004000600040A2
:1028E000340000204C00002040000020AC000020FC
:1028F000022C03D099480068008A20B90820974923
:1029000009680872D6E795480068007810F0800FD3
:102910003BD092480068B0F806B090480068008A42
:10292000584504D98D490968A1F810B023E08B48B7
:102930000068008A89490968C98888421BDA874883
:102940000068008A8649096891F82C10884203DAE9
:102950000020844908700EE080480068008A8049A1
:10296000096891F82C1090FBF1F201FB120010B9EC
:1029700001207C4908707A48006890F82C1077484C
:1029800000688182FFF7D7FD06E0032073490968DC
:10299000087200037449088000BF8BE710B57348C4
:1029A00090F82C10002000F00EFD6C480068007AB2
:1029B000082805D140026C49088010206C49088025
:1029C00066480068007A092801D1012010BD002066
:1029D000FCE708B56748006880B2001D664931F819
:1029E000100080B201EB400000905C480068007A63
:1029F00009282FD000980078584909680870009875
:102A0000401C00900098007854490968487000986C
:102A1000401C00900098801C0090009931F8020B37
:102A2000009100F06CFE4D49096848800098801CB8
:102A30000090009931F8020B009100F060FE4749C8
:102A4000096888800098801C00900098008843499D
:102A50000968C88001204149096808723F48006838
:102A6000C08810B9FFF7BAFD01E0FFF74DFEFFF790
:102A700095FF08BD30B50146404B1A7800200FE0A5
:102A8000C3B23C4C503C54F8233048F68F7423407A
:102A9000C4B22343C4B2374D503D45F82430401CE6
:102AA0009042EDD341F08003324C241F236030BDAF
:102AB00010B52A480068047A022C01D0042C05D1F4
:102AC000FFF739FD25480068047A1CE0062C19D16F
:102AD00022480068407805280ED120480068007818
:102AE00010F07F0F08D11D490968C878FFF7C2FFB1
:102AF00023490968086A8047194909688868804736
:102B0000082400E00824154909680C72FFF746FF05
:102B100010BD10B511480068047A032C01D0052CB3
:102B200005D1FFF7A4FC0D480068047A0EE0072CDD
:102B300005D10B490968C8688047082406E0022CC3
:102B400001D0042C01D1082400E0082403490968BD
:102B50000C72FFF723FF10BD704700003C000020FF
:102B600040000020340000204C000020B000002075
:102B70004E000020505C004000600040AC0000208F
:102B80004800002010B5084808490860022009687C
:102B9000087207480749086007480849086005495E
:102BA00009680868804710BD180200203C0000201A
:102BB000B000002040000020E0000020480000207D
:102BC00010B5002469E147F6FF70E1490860E1486B
:102BD000008800F00F00E0490870084600780028DF
:102BE0007DD1DB484438006800F44050DB49088060
:102BF000D7484438006800F03000D9490880D449EB
:102C0000443909684BF68F7201EA020080F40050E3
:102C1000CF4944390860096848F6BF7201EA0200EA
:102C200080F02000CA4944390860CA48008810F082
:102C3000100F38D10846006848F60F710840C449A3
:102C400044390860FFF734FFC149443909684BF63D
:102C50008F7201EA0200C149098811F4805F01D036
:102C600080F48050BD49098811F4005F01D080F4E0
:102C70000050B74944390860096848F6BF7201EA54
:102C80000200B749097811F0100F01D080F0100050
:102C9000B349097811F0200F01D080F02000AC4931
:102CA0004439086010BDAA484438006884B214F062
:102CB000800F3BD0A6484438006848F60F710840A2
:102CC000A34944390860FFF7F3FEA1494439096874
:102CD0004BF68F7201EA0200A049098800E0A3E0E8
:102CE00011F4805F01D080F480509C49098811F470
:102CF000005F01D080F400509549443908600968AC
:102D000048F6BF7201EA02009549097811F0100FE8
:102D100001D080F010009249097811F0200F01D005
:102D200080F020008A4944390860BBE714F4006F42
:102D30003BD0874844380068C0F30E0048F68F71D6
:102D40000840834944390860FFF743FE804944390D
:102D500009684BF68F7201EA02008049098811F474
:102D6000805F01D080F480507C49098811F4005FB5
:102D700001D080F40050764944390860096848F66B
:102D8000BF7201EA02007649097811F0100F01D0F4
:102D900080F010007249097811F0200F01D080F006
:102DA00020006B49443908607CE714F4004F74D06C
:102DB000674844380068C0F30E0048F68F71084039
:102DC000634944390860FFF7A4FE61494439096842
:102DD0004BF68F7201EA02006049098811F4805FA6
:102DE00001D080F480505D49098811F4005F01D062
:102DF00080F40050564944390860096848F6BF72AB
:102E000001EA02005649097811F0100F01D080F054
:102E100010005349097811F0200F01D080F02000F4
:102E20004B49443908603DE74B48007848494439EC
:102E300051F8200084B214F4004F15D046480078B1
:102E400051F82000C0F30E0048F68F710840424947
:102E500009783F4A443A42F821003F490978491E1F
:102E6000404A52F82100804714F0800F15D03A48AC
:102E700000783749443951F8200048F60F7108406E
:102E800035490978324A443A42F8210032490978F2
:102E9000491E354A52F8210080472D48006880B20B
:102EA0002C49088010F4004F7FF48DAE00BFF9E686
:102EB00010B5002443E047F6FF7025490860254817
:102EC000008800F00F002449087008460078204967
:102ED000443951F8200084B214F4004F16D01E4833
:102EE000007851F82000C0F30E0048F68F710840BA
:102EF00019490978164A443A42F8210016490978D6
:102F0000491E184A52F82100804718E014F0800F3B
:102F100015D0114800780E49443951F8200048F680
:102F20000F7108400C490978094A443A42F82100D7
:102F300009490978491E0C4A52F821008047044883
:102F4000006880B20349088010F4004FB3D110BD6F
:102F5000445C0040A8000020380000204C00002005
:102F60004E0000208C00002070000020F0B51446B8
:102F700004F1010C4FEA6C07DFF848C00CEB410389
:102F80003D460AE00678401C90F800C046EA0C2254
:102F900023F8022B9B1C401C6D1E002DF2D1F0BDAE
:102FA000F0B5561C7510074E06EB41042B4605E0A4
:102FB00034F8047B20F8017B401C5B1E002BF7D10A
:102FC000F0BD000000600040F84908607047F74815
:102FD000006880B27047F549091D08607047F348E2
:102FE000001D006880B27047F0480830006880B269
:102FF0007047EE490C3108607047EC480C300068AF
:1030000080B270474FF6F8710140E84A1032116003
:103010007047E6481030006880B27047E34A403A93
:1030200042F8201070470146E048403850F821002F
:1030300080B27047DD4A403A52F8202048F68F139C
:103040001A400A43D94B403B43F8202070470146C1
:10305000D648403850F8210000F4C060704710B5E1
:10306000D24B403B53F8203048F6BF7403EA0402C9
:1030700011F0100F01D082F0100211F0200F01D0DA
:1030800082F02002C94B403B43F8202010BD10B510
:10309000C64B403B53F820304BF68F7403EA0402D2
:1030A00011F4805F01D082F4805211F4005F01D0EE
:1030B00082F40052BD4B403B43F8202010BD10B5B8
:1030C00002460B461046FFF7AEFF0446012B06D121
:1030D00024F48050B549403941F8220007E0022B22
:1030E00005D124F01000B149403941F8220010BD4B
:1030F0000146AE48403850F8210000F030007047DB
:103100000146AA48403850F8210000F4405070476A
:10311000A64A403A52F8202048F6BF7302EA03015B
:1031200081F0100181F02001A04A403A42F82010BD
:1031300070479E4A403A52F820204BF68F7302EABD
:10314000030181F4805181F40051984A403A42F8D9
:10315000201070479549403951F8201041F4807192
:1031600048F68F721140914A403A42F82010704759
:103170008E49403951F8201048F68F6211408B4A31
:10318000403A42F8201070478849403951F82010E1
:1031900048F68F621140854A403A42F82010704745
:1031A0008249403951F8201041F4807148F68F72FD
:1031B00011407E4A403A42F8201070477B4940391E
:1031C00051F8201041F4807148F68F721140774A0F
:1031D000403A42F8201070477449403951F82010A5
:1031E00048F68F621140714A403A42F82010704709
:1031F00001466E48403850F8210000F03000102899
:1032000001D1012070470020FCE7014667484038A3
:1032100050F8210000F44050B0F5805F01D101204A
:1032200070470020FCE76149403951F82010C1F394
:103230000E0148F68F7211405C4A403A42F8201065
:1032400070475A49403951F8201048F60F72114022
:10325000564A403A42F8201070475449403951F8D4
:10326000201048F68F72114041F480414F4A403A95
:1032700042F8201070474D49403951F8201048F667
:103280008F72114041F04001484A403A42F8201004
:1032900070474649403951F8201011F4804F0CD046
:1032A0004249403951F8201048F68F72114041F4DC
:1032B00080413E4A403A42F8201070473B4940392D
:1032C00051F8201011F0400F0CD03849403951F816
:1032D000201048F68F72114041F04001334A403AC5
:1032E00042F820107047314A403A52F8202048F600
:1032F0008F731A400A432D4B403B43F82020704700
:1033000001462A48403850F8210000F00F0070476D
:1033100010B54A105300254A1032126892B202EBDF
:10332000C002234C44F8123010BD10B54A105300AF
:103330001E4A1032126892B202EBC002121D1C4CDF
:1033400044F8123010BD014618481030006880B2B1
:1033500000EBC100164A32F8100080B270470146F7
:1033600012481030006880B200EBC100001D104A06
:1033700032F8100080B270470C4A1032126892B2D4
:1033800002EBC002921C0A4B43F81210704702462F
:103390003E290FDD481111F01F0F01D1431E98B2D5
:1033A0004FF4004343EA802313600BE0405C00408D
:1033B00000600040481011F0010F01D0431C98B28A
:1033C00083021360704710B50246D048006880B28F
:1033D00000EBC200801DCE4C04EB40033E290BDD08
:1033E000481111F01F0F01D1441EA0B24FF4004448
:1033F00044EA80241C6007E0481011F0010F01D05E
:10340000441CA0B284021C6010BD0146BF48006885
:1034100080B200EBC100801CBD4A32F81000C0F33E
:10342000090070470146B948006880B200EBC1004E
:10343000801DB74A32F81000C0F30900704730B55C
:103440004B105C00B14B1B689BB203EBC003B04D4B
:1034500045F8134053105C00AC4B1B689BB203EB68
:10346000C0031B1D45F8134030BD10B54A10530072
:10347000A64A126892B202EBC002A54C44F8123080
:1034800010BD10B54A105300A04A126892B202EB68
:10349000C002121D9E4C44F8123010BD01469B48DC
:1034A000006880B200EBC100994A32F8100080B287
:1034B000704701469548006880B200EBC100001DCE
:1034C000934A32F8100080B2704730B50B46012B9A
:1034D0001FD18E49096889B201EBC001891C8C4D4E
:1034E00005EB41043E2A0BDD511112F01F0F01D1F3
:1034F0004D1EA9B24FF4004545EA8125256007E03D
:10350000511012F0010F01D04D1CA9B28D0225609F
:103510000AE0022B08D17D49096889B201EBC0019C
:10352000891C7B4C44F81120012B1FD17749096875
:1035300089B201EBC001891D754D05EB41043E2A9E
:103540000BDD511112F01F0F01D14D1EA9B24FF426
:10355000004545EA8125256007E0511012F0010F72
:1035600001D04D1CA9B28D0225600AE0022B08D1C2
:103570006649096889B201EBC001891D644C44F8B1
:10358000112030BD30B5034601291FD15F480068C6
:1035900080B200EBC300801C5D4D05EB40043E2A69
:1035A0000BDD501112F01F0F01D1451EA8B24FF4D0
:1035B000004545EA8025256007E0501012F0010F14
:1035C00001D0451CA8B2850225600AE0022908D175
:1035D0004E48006880B200EBC300801C4C4C44F89D
:1035E000102030BD30B5034601291FD1474800687F
:1035F00080B200EBC300801D454D05EB40043E2A20
:103600000BDD501112F01F0F01D1451EA8B24FF46F
:10361000004545EA8025256007E0501012F0010FB3
:1036200001D0451CA8B2850225600AE0022908D114
:103630003648006880B200EBC300801D344C44F86B
:10364000102030BD01463148006880B200EBC10057
:10365000801C2F4A32F81000C0F309007047014661
:103660002A48006880B200EBC100801D284A32F869
:103670001000C0F30900704701462448006880B27A
:1036800000EBC100801D224A32F8100010F47C4F7C
:1036900001D0012070471D48006880B200EBC100D6
:1036A000801C1B4A32F810008005800D01D00220DA
:1036B000F0E70020EEE701290DD1144A503A52F804
:1036C000202048F68F731A4042F040020F4B503BC7
:1036D00043F820200EE002290CD10C4A503A52F84F
:1036E000202048F68F731A4042F48042074B503B2B
:1036F00043F820207047024641EA02207047014605
:10370000CAB20B1243EA022070470000505C00402E
:103710000060004010B50020FDF7B4FF0121C8058E
:10372000FEF759F810BD03203C49086070473C483B
:10373000817A19B10521394A116002E00121374A25
:10374000116070470EB54FF4A060FDF7B7FC4FF461
:103750008020FEF724FB4FF48020009008208DF895
:10376000050001208DF806006846FEF7A1FA142036
:103770008DF8080001208DF8090000208DF80A005E
:1037800001208DF80B0002A8FDF79DFC2A208DF882
:10379000080000208DF8090002A8FDF794FC0EBD7A
:1037A0002DE9F84304460D4616461F4600200090BA
:1037B0008DF800408DF801508DF802608DF803708F
:1037C0000120FFF7C0FD8046042241466846FFF70E
:1037D000CDFB0120FFF79CFCBDE8F88310B5114B31
:1037E00018681B1D19681B1D1A68A8B10E4CA07023
:1037F000030A2371030CA371030E2372A1720B0A37
:1038000023730B0CA3730B0E2374A274130A23757A
:10381000130CA375130E237610BD00004801002081
:1038200018020020E8F7FF1F5000002010B53748AD
:103830000068374908800846008800F480603549F0
:103840000988084206D04FF6FF30304908603249F7
:10385000486880472E48008800F400502D490988A8
:10386000084203D04DF6FF702849086028480088B8
:1038700000F4805027490988084206D04EF6FF70B0
:1038800022490860002000F0ABF92148008800F4CC
:1038900000602049098808420CD02048007810B107
:1038A00000F07EF902E0022000F09AF94FF2FF707A
:1038B000164908601648008800F400701549098808
:1038C000084208D04FF6FF501049086014480078AD
:1038D000401C134908700E48008800F480700D49A0
:1038E0000988084206D04FF6FF60084908600720A3
:1038F00000F076F90648008800F400400549098880
:10390000084201D0FFF75CF910BD0000445C0040A4
:10391000A800002046000020B00000204C0100203C
:103920006C00002010B5FFF759FF00207E490968A0
:10393000887200F013F900207C4908604FF43F4082
:103940007B490880084600887849091F08600020E4
:103950007849086010BD10B5002073490968887265
:1039600071490968C8727448C0796F49096848721A
:103970000020FFF747FB4FF400710020FFF75AFBD0
:1039800010210020FFF76BFB18210020FFF7CDFC72
:1039900058210020FFF7BCFC0020FFF7F5FB67482B
:1039A00090F82C100020FFF70EFD0020FFF7C1FB60
:1039B0004FF4C0610120FFF73DFB4FF480710120FF
:1039C000FFF7A6FC04210120FFF7D6FC002101200F
:1039D000FFF75DFB20210120FFF741FB0120554946
:1039E00008600020FFF746F810BD5548817A11B1F4
:1039F0000521504A1160704704204E490860704705
:103A000070477047014629B90120474A1268108261
:103A1000002070474B48FCE710B504464A49204651
:103A2000FEF715FD10BD10B5044648492046FEF7C7
:103A30000EFD10BD70B504460025062C1AD13A487B
:103A40000068007800F07F00012813D13648006834
:103A5000407978B9344800688078222802D1AFF2E2
:103A6000390512E030480068807821280DD1AFF286
:103A700057050AE02C480068007800F07F002128F4
:103A800003D1032C01D1AFF283050DB9022070BD23
:103A90002548006885610021234800684182002094
:103AA000A8470020F3E720480068C1782548016056
:103AB0000020704700B502461B480068007800F0FF
:103AC0007F00212804D10B2A02D1FFF7ECFF00BDB3
:103AD0000220FCE710B504461D492046FEF7B7FC5E
:103AE00010BD10B504461B492046FEF7B0FC10BDC2
:103AF00070B505460C480068C478042C01DD002030
:103B000070BD154800EBC4012846FEF7A0FCF7E79E
:103B10000246002901DD02207047002A01DD022053
:103B2000FAE70020F8E700003C000020445C004079
:103B300046000020480100203C470008B00000205B
:103B400018020020440100201C0100201401002064
:103B5000040100200C0100202401002001214A481A
:103B600001600020494A108010460088464A1060D3
:103B70000020121D10604FF4E050444A108010469F
:103B80000088414A10600020704701203E490860CB
:103B90000020091D08600320091F086000207047ED
:103BA00010B53948006884B244F00804364804600F
:103BB000006884B244F0040433480460FFF7B3FDA6
:103BC00010BD10B53048006884B224F004042E48BB
:103BD0000460FFF7ACFD4FF43F402B49086010BD77
:103BE00070B50546072D01D0294805702848007892
:103BF000082841D2DFE800F0040A1016212E4142C5
:103C0000FFF7DFFF0620224908703BE0FFF7D9FFEE
:103C100004201F49087035E002201D494870032028
:103C200008702FE01A484078401E1949487008462D
:103C3000407808B90420087024E01348006884B272
:103C400044F01004104804600520114908700A204F
:103C5000487017E00E484078401E0D4948700846ED
:103C6000407840B90848006884B224F0100406483F
:103C700004600620087005E000BF00BF062004496C
:103C8000087000BF00BF70BD405C004046000020CF
:103C90004D010020704700000FB4044910B503AA7D
:103CA000029800F053F910BC5DF814FB1C000020D2
:103CB00070B5044685690068C10601D5302600E06C
:103CC0002026C00708D070BDD4E9012130469047B6
:103CD000206A00F1010020626D1EF5D570BD70B53F
:103CE000044685690078C00708D170BDD4E9012178
:103CF00020209047206A00F1010020626D1EF5D55A
:103D000070BD00002DE9F0410646002410687529B9
:103D1000314616A511D0AFF30080002803DAC0F1B8
:103D2000000013A507E031688A0701D511A502E05C
:103D3000490704D510A5012401E0AFF3008000215C
:103D40000A2306F1240707E0B0FBF3F203FB12009D
:103D5000303078541046491C0028F5D123462A46B5
:103D60003046BDE8F04100F094B8000000000000CB
:103D70002D0000002B000000200000002DE9F0477E
:103D80004FF0000A89460446C0F820A02046E168AA
:103D90008847002876D0252806D0D4E9012190470D
:103DA000206A401C2062F1E7E16820460025884730
:103DB000C4F81CA006460027C4F818A02A2E09D073
:103DC000304600F021F938B304EB8708303EC8F8DC
:103DD000186019E059F8041B204604EB8702916132
:103DE000E1688847012F064618D1E069002820DAEB
:103DF00025F020051DE0D8F8180000EB800006EB48
:103E000040003038C8F818002046E1688847064668
:103E100000F0FAF80028EED1012F0AD02E2E08D19A
:103E20002046E16888477F1C0646022F45F02005A2
:103E3000C4DBA069002803DA404245F00105A06117
:103E4000E80701D025F01005B6B1A6F14100192808
:103E500002D8203645F400654A46314620462560A2
:103E60004D46FCF7BFF958B1012806D0ED1D25F0ED
:103E7000070000F1080989E704E005F1040985E776
:103E800030468AE7206ABDE8F08770477047704780
:103E900070472DE9F0470D4699469246044600F1D9
:103EA00024080168880604D5E06921F0100121602A
:103EB00000E00120A84202DDA0EB050700E000279A
:103EC000A16907EB050202EB0900A1EB0000A0616C
:103ED0002078C00602D42046FFF7EAFE002608E05C
:103EE000D4E901211AF806009047206A401C761C8C
:103EF00020624E45F4DB2078C0060AD52046FFF745
:103F0000D7FE06E0D4E9012130209047206A401C0A
:103F10002062381EA7F10107F4DC07E0D4E9012193
:103F200018F805009047206A401C2062281EA5F161
:103F30000105F3DC2046FFF7D2FE2078000602D50B
:103F40000220BDE8F0870120FBE70000074B70B5B9
:103F50000D467B4400F011F80446284600F020F896
:103F600010B14FF0FF3070BD204670BDEDCFFFFFA8
:103F700001694A1C02610878704700B58FB0CDE92D
:103F800001310021059105497944CDE9031011461D
:103F90006846FFF7F3FE0FB000BD0000E5FFFFFF2E
:103FA000007B00F080007047754600F029F8AE46AF
:103FB00005006946534620F00700854618B020B535
:103FC000FDF76AF8BDE820404FF000064FF000070B
:103FD0004FF000084FF0000B21F00701AC46ACE8B1
:103FE000C009ACE8C009ACE8C009ACE8C0098D461E
:103FF00070470446AFF300802046FCF705F9000047
:10400000004870473402002030380A2801D20120CD
:10401000704700207047000010B591EA030F48BFB9
:1040200083F0004300F19A82841A71EB030C05D2ED
:10403000121943EB0C03001B61EB0C01DFF824E1C8
:104040004FEA1154A4EB135C1EEA430F18BF9EEA1B
:10405000445F73D023EA0E03DCF1200E21EA045101
:1040600043F4801332D322FA0CFE10EB0E0023FA35
:104070000CFE41EB0E01CCF1200E03FA0EFE10EB0C
:104080000E0051F10001B1F5801FCCF1200E32D2AB
:1040900001EB045112FA0EF2BDE8104058BF704710
:1040A000401C38BF5FEA420218BF7047002814BFA7
:1040B00020F0010041F100014FEA410313F5001F18
:1040C00038BF7047A1F1C04100F03ABA012A43EB72
:1040D0000302ACF1200CDCF11F0E32BF4FF0000EDA
:1040E00023FA0CF310EB030041EB0451B4EB115F26
:1040F000D0D0A1EB045101F5801149085FEA3000EE
:1041000001EB04510ED350F1000038BF12FA0EFE3D
:1041100008D1BDE81040C9E7401C38BF5FEA420241
:10412000CAD1C3E7BDE810404FEA410313F5001FB1
:1041300038BF7047A1F1C04100F002BA9EEA445F67
:1041400008D011EA5E0FBDE8104004BF01F0004145
:1041500000207047BDE8104070B500F0A3F900BF23
:1041600064FBBE3E0000E0FF2DE9C04130B4DFF843
:10417000A0C23CEA111418BF3CEA131400F0EC8012
:1041800081EA03051CEA111444EAD57418BF1CEA3D
:10419000131500F0C780A4EB05044FF0004545EA75
:1041A000C12145EAC32341EA505143EA525304F185
:1041B0007F74994204F500344FEAC0204FEAC222CE
:1041C00008BF904200F09C804FEA13650FF2401642
:1041D000765D4FEA134506FB05F7C7F1807706FBCE
:1041E00007F74FEAD737A7FB03687642C8F5803850
:1041F000A7FB06CE38BFA8F1010807FB08E64FF081
:10420000000EA6FB028CE6FB03CEDCF1000CCEF127
:10421000004E38BFAEF1010EA6FB0C584FF0000760
:104220004FF00005E6FB0E87A1FB08C6A0FB07CEFA
:1042300016EB0E0645F10005E1FB076515F1E04EB2
:104240007EBFA4F580345FEA46066D4116F1800713
:1042500045F100054FEA17274FEA066647EA05676A
:10426000A6F1DE46B6F1805F4FEA15251FD9384624
:1042700024F0010C05EBC471BCF1FE6F01EB0C11D5
:1042800002D8F0BCBDE8008124425CBF01F5801E6D
:104290009EEAC47F02D4F0BCBDE80081244238D439
:1042A000F0BCA1F1C041BDE8004100F049B94FEABE
:1042B000D22242EA43524FEAD323A7FB02864FEAB7
:1042C000D02040EA415007FB03661EEA0E0F4FEA7A
:1042D000D12105FB026658BFA6EB0056B6EB00568F
:1042E0004FEA520E4EEAC37E18EB0E0E56EB530EFB
:1042F000BDD518EB02085E417F1C55F10005B6E7FD
:104300004FF480154FF000074FF000064FF0000803
:10431000ADE7F0BC4FF0000001F1C04101F00041F9
:10432000BDE8008111EA0C1F0CEA131500D00CE067
:1043300013EA0C1F00F025804FF00000F0BC81EA6A
:10434000030101F00041BDE80081F0BCBDE800417F
:1043500081EA030100F0F4B8F0BCBDE8004170B59B
:1043600000F0A0F8097EFC3E00F007B881EA0301E6
:104370004FF0000001F00041704781EA030100F0B6
:10438000DFB8F0BCBDE800414FF0000021497047A4
:10439000FFFDFBF9F7F5F4F2F0EEEDEBE9E8E6E40A
:1043A000E3E1E0DEDDDBDAD8D7D5D4D3D1D0CFCD91
:1043B000CCCBCAC8C7C6C5C4C2C1C0BFBEBDBCBBCA
:1043C000BAB9B8B7B6B5B4B3B2B1B0AFAEADACABC5
:1043D000AAA9A8A8A7A6A5A4A3A3A2A1A09F9F9E9F
:1043E0009D9C9C9B9A999998979796959594939351
:1043F000929191908F8F8E8E8D8C8C8B8B8A8989E8
:10440000888887878685858484838382828181806A
:104410000000FF070000F87F4FEA41034FEA5353C3
:10442000A3F58063D3F11E03C8BFD3F1210C0CDDCB
:104430004FF0004242EAC12242EA505232FA03FCF3
:104440008CEAE17CACEBE1707047102BC4BF00201C
:10445000704703F5787CBCF1FF3F04D06FF0004259
:1044600082EA2100704770B500F01CF84992248060
:1044700000207047F2E710F0004248BF4042B0FA17
:1044800080F310FA03F10AD0C3F11D0303F5806332
:104490004FEA415002EB035202EBD12170474FF03B
:1044A000000070470EF1020E2EF0030E5EF8046B52
:1044B000364205D4012A43EB030515F5001F12D837
:1044C000012841EB010C1CF5001F0CD80ED14FEA5E
:1044D000D17C15F5001F0CEB4C0C0CF1020C08BF45
:1044E0004CEBD37C04E04FF0080C01E04FEAD37CA6
:1044F0000CEB4C0526FA05F606F00706B6F1040C9F
:1045000006D20EEB860CBDE870404CF0010C604703
:10451000DFE80CF0090B02024FF000414FF0000001
:10452000A1F5002170BD19461046012851EB010488
:1045300018BFD4F5001484BF002001F0004170BD05
:104540000808A0F500114FEA3101704710B591EA53
:10455000030F48BF83F000433FF566AD841A71EB4B
:10456000030C07D212198CF0004C43EB0C03001B18
:1045700061EB0C01DFF8A4E14FEA1154A4EB135CEA
:104580001EEA430F18BF9EEA445F00F0B08023EAA2
:104590006E03524221EA0451C3EB6E0338BF5B1E27
:1045A000DCF1200E25D322FA0CFE10EB0E0043FAAC
:1045B0000CFE41EB0E01CCF1200E03FA0EFE10EBC7
:1045C0000E0051F10001CCF1200E29D412FA0EF2A6
:1045D00001EB0451BDE8104058BF7047401C1CBFA0
:1045E000B2F1004F704700280CBF491C20F00100B9
:1045F000704712EB020E43EB030218BF4FF0010E9F
:104600004EEA4202ACF1200CDCF11E0E54D943FA02
:104610000CFE10EB0E0051F1FF31CCF11E0ED5D582
:104620000EF1010E12FA0EFE404141EB010101EBC9
:10463000445C5FEA5C5C10D910EBDE7001EB045166
:1046400038BFBEF1004FBDE8104018BF70470028CA
:104650000CBF491C20F00100704730D24FEAD42C27
:1046600011F5001124F400641BD0B1FA81F20B3A69
:10467000A41AA41ED2F12003914030FA03F3194387
:10468000904001EBCC71002C01EB0451BDE81040CF
:10469000A8BF704701F1C0414FF0000001F0004198
:1046A0007047B0FA80F310FA03F100D110BDE41A9C
:1046B000173C4805C90AE4E701EB045110BD491055
:1046C00001EB0451BDE810404FEA300002E04FF02A
:1046D000000170474A0008BF0042F8D0B2F5001F41
:1046E00028BF704701F000414FF0000070479EEA7C
:1046F000445F07D011EA5E0FBDE8104004BF0021FF
:1047000000207047BDE8104070B5FFF7CBFE00BF3A
:1047100040DFF63E83F00041104670470000E0FFA6
:104720003443101001344310100112010002000044
:104730000040830410570002010203010902220015
:10474000010100E032090400000103010200092117
:1047500000010001224A0007058103040020050131
:104760000902A1010901A100050919012903150088
:1047700025019503750181029501750581010501EA
:104780000930093109381581257F7508950381069F
:10479000C0093C05FF09011500250175019502B10D
:1047A0002275069501B101C0040309041A037F5E56
:1047B000DE5D1F66FC7F3575505BD17962800967CD
:1047C00050966C51F853220341004C0049004500BB
:1047D0004E00540045004B002000E689A7635500B9
:1047E00053004200209F076808480008000000208E
:1047F000500100006C01000898480008500100209A
:1048000048070000C80100081184A24A04000910EA
:1048100001020304060708092918691C051C020483
:104820000608141A03531254124D12331232123165
:1048300002113013592B0A320804412302011325B7
:10484000391B08570413013A1B0803041A35041ACC
:10485000B50413113B1B08D5081AE3041AF10441EF
:104860005A40701AEB300916581AF91C132A4733AC
:1048700008121A3C0832221A5E08324A1A4E0832CE
:10488000091AA80832041AAC08321A5AC62822504B
:084890002A201081199F11007C
:0400000508000131BD
:00000001FF
